:020000040800F2
:1000000000300020AD100008A50F0008AB0F00085D
:1000100000000000000000000000000000000000E0
:10002000000000000000000000000000B10F000808
:100030000000000000000000BB0F0008C50F000812
:10004000FD10000800000000FD100008FD10000871
:10005000FD100008FD100008FD100008D30F000877
:1000600000000000FD100008FD100008FD10000851
:10007000FD100008FD100008FD1000080000000041
:10008000F90F00080000000000000000FD1000084B
:100090000000000011100008FD100008FD1000080D
:1000A00000000000FD10000800000000FD10000826
:1000B000FD1000080000000000000000000000002B
:1000C00010B5064C2378002B07D1054B002B02D02E
:1000D000044800E000BF0123237010BD5C00002035
:1000E00000000000C0510008044B10B5002B03D0E5
:1000F0000349044800E000BF10BDC04600000000F6
:1001000060000020C05100080023C25C0133002AB7
:10011000FBD1581E7047000003B4714649084000E7
:100120004900095E49008E4403BC70470022430821
:100130008B4274D303098B425FD3030A8B4244D3AF
:10014000030B8B4228D3030C8B420DD3FF220902F1
:1001500012BA030C8B4202D31212090265D0030BB0
:100160008B4219D300E0090AC30B8B4201D3CB03A6
:10017000C01A5241830B8B4201D38B03C01A5241E8
:10018000430B8B4201D34B03C01A5241030B8B42EA
:1001900001D30B03C01A5241C30A8B4201D3CB02D5
:1001A000C01A5241830A8B4201D38B02C01A5241BA
:1001B000430A8B4201D34B02C01A5241030A8B42BD
:1001C00001D30B02C01A5241CDD2C3098B4201D3D5
:1001D000CB01C01A524183098B4201D38B01C01A53
:1001E000524143098B4201D34B01C01A52410309CA
:1001F0008B4201D30B01C01A5241C3088B4201D379
:10020000CB00C01A524183088B4201D38B00C01A25
:10021000524143088B4201D34B00C01A5241411A4C
:1002200000D20146524110467047FFE701B5002059
:1002300000F006F802BDC0460029F7D076E7704707
:100240007047C04690B583B000AF744B744A1168D4
:10025000196012791A71714B180000F097FAFA239D
:100260009B00180000F0C8FF6E4B4021180002F000
:100270006FF90300012B08D16B4B00221A70642028
:1002800000F0BAFF00F03AF907E0674B01221A705C
:10029000642000F0B1FF00F067F900F04FFA00F0C1
:1002A000A1FF03007B60614B1B78DBB2012B1CD1EB
:1002B0005F4B1B687A68D21AFA23DB009A4214D388
:1002C000564B5C4A13CA13C312681A60534B18008A
:1002D00000F05CFA00F048F900F010F9544B0022ED
:1002E0001A60524B00221A7036E0514B1B687A6834
:1002F000D31A632B30D94D4B1B78DBB2012B2BD19A
:1003000080231A02A023DB051100180002F020F957
:10031000031E1BD1434B4021180002F019F90300C2
:10032000012B13D1444B1B78DBB2002B01D100F021
:10033000E5F83A4B414A13CA13C312781A70374B87
:10034000180000F023FA384B00221A70384B0022B4
:100350001A60364B00221A70334B1B78DBB2002B2D
:1003600026D0374B1B687A68D31A364A93420CD989
:100370002A4B354A03CA03C3284B180000F006FA7B
:1003800000F0DCF92E4B7A681A602B4B1B78DBB23D
:10039000012B0DD100F0E8F8204B2C4A13CA13C3EF
:1003A0001188198092789A701C4B180000F0EEF9B1
:1003B000274B1B78012B06D1254B00221A7000F029
:1003C00075F900F04FF9234B1B687A68D31A224A5B
:1003D000934200D863E7144B1B78DBB2002B00D0AC
:1003E0005DE70E4B1D4A13CA13C3116819601279D9
:1003F0001A710A4B180000F0C9F9154B00221A7047
:10040000174B180002F0C4FD00F01AFF0121002074
:1004100002F00CF900F022FF41E7C046780000200E
:10042000D851000800040050A3000020A4000020C0
:10043000A8000020E0510008A2000020F0510008B0
:10044000B000002088130000005200080852000885
:10045000A0000020AC000020871300001852000804
:100460006401002080B582B000AF0200BB1D1A807D
:1004700000F0B8FE0200114B1A60BB1D1A888023E1
:100480001B029A420ED10E4B1B78DBB20133DAB25B
:100490000B4B1A7000F0A6FE02000A4B1A600A4BC2
:1004A00001221A70BB1D1B88402B02D1074B012271
:1004B0001A70C046BD4602B080BDC046AC000020E8
:1004C000A4000020A8000020A0000020A30000201D
:1004D00080B582B000AF78607A68064B9A4204D14A
:1004E00000F0BCFE044B01221A70C046BD4602B0AB
:1004F00080BDC04664010020A000002080B500AF90
:1005000080239900A023DB050122180002F03DF8AA
:10051000134B0021180002F0E1FD322000F06CFEC8
:100520000F4B1B68E12292005A63322000F064FEF8
:100530000B4B0021180002F0A9FEFA235B00180003
:1005400000F05AFE80239900A023DB05002218004A
:1005500002F01BF8034B01221A70C046BD4680BD55
:1005600018010020A200002080B500AF8023990070
:10057000A023DB050122180002F007F8134B00212D
:10058000180002F0ABFD322000F036FE0F4B1B6866
:10059000E122D2005A63322000F02EFE0B4B0021E4
:1005A000180002F073FEFA235B00180000F024FE2E
:1005B00080239900A023DB050022180001F0E5FF4D
:1005C000034B00221A70C046BD4680BD18010020B2
:1005D000A200002080B582B000AF80231B021D481E
:1005E0000122190001F0D1FF1B4B180001F054F952
:1005F000FA239A00184B1100180001F0D7F9164B96
:10060000180001F061FA03009AB2BB1D1A800520A0
:1006100000F0F2FD104B180001F08CF980231B0252
:100620000C480022190001F0B0FFBB1D1B889BB2D3
:100630000A4A934203D80A4B01221A7002E0084B7F
:1006400000221A70BB1D1B889BB21800BD4602B069
:1006500080BDC04600040050B4000020850B00009F
:10066000A100002090B583B000AFBC1DFFF7B2FF22
:10067000030023800A4B1B78002B01D000F03AF8CE
:10068000BB1D1A880749084B180004F0F3F8064B05
:10069000180000F07BF8C046BD4603B090BDC046D0
:1006A000A10000202C5200087800002080B500AF87
:1006B0000F4B01228021180001F067FF80235B00AF
:1006C0000B480122190001F060FF642000F094FD46
:1006D000074B00228021180001F057FF80235B00A8
:1006E00003480022190001F050FFC046BD4680BDFE
:1006F0000004005080B500AF0F4B0122802118008C
:1007000001F043FF80239B000B480122190001F0F8
:100710003CFFC82000F070FD80239B0006480022AB
:10072000190001F032FF044B00228021180001F073
:100730002CFFC046BD4680BD0004005080B500AF10
:1007400080235B0010480122190001F01EFF802366
:100750009B000D480122190001F017FFFA239B00AE
:10076000180000F049FD80235B00074800221900B3
:1007700001F00BFF80239B0003480022190001F0C9
:1007800004FFC046BD4680BD0004005080B582B065
:1007900000AF78607B681800FFF7B6FC03009AB2E0
:1007A00001235B4279680A4803F014FC0A2000F038
:1007B00023FD7B681800FFF7A7FC02007B6800217F
:1007C000180004F077F8C046BD4602B080BDC046B0
:1007D000B001002080B500AF00F091FC00F00DF8F2
:1007E00000F0D8F900F016F900F04CF800F09EF98E
:1007F00000F072F9FFF726FDFEE790B58DB000AF6F
:1008000014243B1918001C231A00002104F052F88C
:100810003B00180014231A00002104F04BF83B1988
:1008200002221A603B1980225200DA603B198022B2
:1008300052011A613B1940225A613B19180001F01C
:1008400011FF031E01D000F051FA3B0007221A608D
:100850003B0000225A603B0000229A603B000022CD
:10086000DA603B0000221A613B000021180002F010
:10087000DDF8031E01D000F039FAC046BD460DB0C8
:1008800090BD000080B584B000AF3B1D18000C2364
:100890001A00002104F00EF85B4B5C4A1A605A4BB8
:1008A000C02212065A60584B00229A60564B002212
:1008B000DA60554B802292031A61534B04225A612D
:1008C000514B00221A76504B00225A764E4B002292
:1008D0009A764D4B0822DA614B4B20220021995425
:1008E000494B00225A62484B00229A62464B2C2206
:1008F00000219954444B00221A63434B07225A6348
:10090000414B07229A63404B3C22002199543E4BB5
:100910000022DA643C4B180000F018FE031E01D0E0
:1009200000F0E4F93B1D3A4A1A603B1D00225A6070
:100930003B1D00229A603A1D334B1100180001F054
:10094000CFF8031E01D000F0D1F93B1D04225A60FC
:100950003A1D2D4B1100180001F0C2F8031E01D002
:1009600000F0C4F93B1D08225A603A1D264B1100C5
:10097000180001F0B5F8031E01D000F0B7F93B1DD7
:100980000C225A603A1D204B1100180001F0A8F803
:10099000031E01D000F0AAF93B1D10225A603A1D37
:1009A000194B1100180001F09BF8031E01D000F054
:1009B0009DF93B1D14225A603A1D134B110018007B
:1009C00001F08EF8031E01D000F090F93B1D1822B3
:1009D0005A603A1D0C4B1100180001F081F8031EFB
:1009E00001D000F083F93B1D1C225A603A1D064BD2
:1009F0001100180001F074F8031E01D000F076F920
:100A0000C046BD4604B080BDB400002000240140B3
:100A10000010003080B58AB000AF1C23FB1818000E
:100A20000C231A00002103F045FF3B0018001C2393
:100A30001A00002103F03EFF244B254A1A60234B85
:100A40000C225A60214B00229A60204B214ADA6026
:100A50001E4B00221A611D4B80229A611B4B18000D
:100A600002F0E4FA031E01D000F040F91C217B18CB
:100A700000221A607B1800229A607A18134B11002A
:100A8000180003F0D7F9031E01D000F02FF93B0046
:100A900060221A603B0000225A603B0000229A60EC
:100AA0003B0000221A613900084B0022180002F0B6
:100AB00075FD031E01D000F019F9044B180000F079
:100AC000E9F9C046BD460AB080BDC0461801002005
:100AD000000400403408000080B500AF0F4B104AFE
:100AE0001A600E4B0F4A5A600C4B00229A600B4B57
:100AF0000D4ADA60094B00221A61084B00225A6144
:100B0000064B80229A61054B180002F0E9F9031E9A
:100B100001D000F0EBF8C046BD4680BD6401002066
:100B200000440140EF2A0000DDFF000080B500AF67
:100B3000164B174A1A60154BE12252025A60134BAA
:100B400000229A60114B0022DA60104B00221A61D9
:100B50000E4B0C225A610D4B00229A610B4B002266
:100B6000DA610A4B00221A62084B00225A62074BD4
:100B700000229A62054B180003F0D6F9031E01D03B
:100B800000F0B4F8C046BD4680BDC046B0010020AC
:100B90000044004090B589B000AF0C243B19180008
:100BA00014231A00002103F085FE4B4B5A6B4A4B6D
:100BB00004210A435A63484B5B6B04221340BB6019
:100BC000BB68454B5A6B444B01210A435A63424B65
:100BD0005B6B012213407B607B683F4B5A6B3E4B43
:100BE00002210A435A633C4B5B6B022213403B6079
:100BF0003B6888239900A023DB050022180001F040
:100C0000C4FC3649364B0022180001F0BEFC3B19EB
:100C1000802292011A603B19324A5A603B19012224
:100C20009A603B19304A1900100001F01FFB2100A7
:100C30007B18882292001A600C003B1901225A602E
:100C40003B1900229A603B190022DA603A19A0236E
:100C5000DB051100180001F009FB3B191F4A1A605F
:100C60003B1901225A603B1900229A603B1900226D
:100C7000DA603B191A4A1900100001F0F7FA3B1923
:100C8000802212021A603B19164A5A603B19002250
:100C90009A603A19A023DB051100180001F0E6FA6A
:100CA0003B1940221A603B190E4A5A603B19012237
:100CB0009A603B190A4A1900100001F0D7FA002285
:100CC0000021072001F0A0FA072001F0B2FAC04687
:100CD000BD4609B090BDC0460010024080830000B0
:100CE00000040050000021100008005080B500AF43
:100CF00072B6C046FEE7000080B582B000AF0F4B71
:100D00001A6C0E4B01210A431A640C4B1B6C012216
:100D100013407B607B68094BDA6B084B80214905E7
:100D20000A43DA63054BDA6B80235B0513403B60B3
:100D30003B68C046BD4602B080BDC04600100240C0
:100D400090B591B000AF78602C23FB1818001423E5
:100D50001A00002103F0AEFD10243B1918001C23DB
:100D60001A00002103F0A6FD7B681B68204A93420D
:100D70003AD13B198022D2011A603B1900225A61F4
:100D80003B19180001F0BEFF031E01D0FFF7AEFFB4
:100D9000184B1A6C174B802149030A431A64154BF0
:100DA0001A6C80235B031340FB60FB68114B5A6B8A
:100DB000104B01210A435A630E4B5B6B0122134017
:100DC000BB60BB682C217B18802252011A607B1803
:100DD00003225A607B1800229A607A18A023DB0550
:100DE0001100180001F042FAC046BD4611B090BD96
:100DF000002401400010024080B584B000AF78604C
:100E00007B681B680D4A934213D10D4BDA6B0C4B78
:100E100002210A43DA630A4BDB6B02221340FB60B8
:100E2000FB6800220021102001F0EEF9102001F0F3
:100E300000FAC046BD4604B080BDC0460004004074
:100E40000010024080B584B000AF78607B681B68FA
:100E50000E4A934215D10E4B1A6C0D4B802189021C
:100E60000A431A640A4B1A6C80239B021340FB60EE
:100E7000FB6800220021152001F0C6F9152001F0C1
:100E8000D8F9C046BD4604B080BDC046004401400C
:100E90000010024090B589B000AF78600C243B1977
:100EA000180014231A00002103F004FD7B681B685E
:100EB000144A934221D1144B5A6B134B04210A4319
:100EC0005A63114B5B6B04221340BB60BB6821006B
:100ED0007B1840221A607B1802225A607B1800227D
:100EE0009A607B180022DA607B1801221A617B1855
:100EF000064A1900100001F0B9F9C046BD4609B014
:100F000090BDC046000400400010024000080050A0
:100F100090B58BB000AF786014243B1918001423EF
:100F20001A00002103F0C6FC7B681B681B4A934231
:100F300030D11B4BDA6B1A4B802189020A43DA63EA
:100F4000174BDA6B80239B0213403B613B69144BC8
:100F50005A6B134B01210A435A63114B5B6B0122FD
:100F60001340FB60FB6821007B180C221A607B1881
:100F700002225A607B1800229A607B180022DA60F5
:100F80007B1801221A617A18A023DB0511001800D2
:100F900001F06CF9C046BD460BB090BD0044004066
:100FA0000010024080B500AFFEE780B500AFFEE75D
:100FB00080B500AFC046BD4680BD80B500AFC0461D
:100FC000BD4680BD80B500AF00F0FAF8C046BD4612
:100FD00080BD80B500AF402001F0F4FA80239B0172
:100FE000180001F0EFFA80231B02180001F0EAFA62
:100FF000C046BD4680BD000080B500AF034B180061
:1010000002F0CAF9C046BD4680BDC04618010020A6
:1010100080B500AF034B180002F0BEF9C046BD46D4
:1010200080BDC0466401002080B586B000AF786006
:10103000144A154BD31A7B617B693B61134B1B68C8
:10104000002B02D1114B124A1A60104B1A687B68B0
:10105000D3183A699A4207D203F034FC03000C22F9
:101060001A6001235B4209E0084B1B68FB60074BD9
:101070001A687B68D218054B1A60FB681800BD46D9
:1010800006B080BD003000200004000044020020B3
:101090009803002080B500AF034B802212059A60B0
:1010A000C046BD4680BDC04600ED00E00D48854607
:1010B000FFF7F0FF002103E00B4B5B584350043176
:1010C0000A480B4B42189A42F6D30A4A02E0002320
:1010D00013600432084B9A42F9D303F0F9FBFFF78F
:1010E00079FBFEE7003000204C5300080000002090
:1010F0005C0000205C00002094030020FEE780B527
:1011000082B000AFFB1D00221A70032000F00EF821
:10111000031E03D0FB1D01221A7001E0FFF7ECFD56
:10112000FB1D1B781800BD4602B080BD90B585B090
:1011300000AF78600F23FB1800221A701D4B1B783C
:10114000002B2BD01C4B1C681A4B1B781900FA2360
:101150009800FEF7EBFF030019002000FEF7E6FF02
:101160000300180001F075F8031E12D17B68032BF1
:101170000AD8796801235B420022180001F044F884
:101180000E4B7A681A600DE00F23FB1801221A70CB
:1011900008E00F23FB1801221A7003E00F23FB184D
:1011A00001221A700F23FB181B781800BD4605B0EA
:1011B00090BDC04608000020000000200400002070
:1011C00080B500AF054B1B781A00054B1B68D21881
:1011D000034B1A60C046BD4680BDC04608000020D3
:1011E0004802002080B500AF024B1B681800BD46C6
:1011F00080BDC0464802002080B584B000AF786052
:10120000FFF7F0FF0300BB607B68FB60FB68013306
:1012100005D00A4B1B781A00FB689B18FB60C04680
:10122000FFF7E0FF0200BB68D31AFA689A42F7D8CA
:10123000C046C046BD4604B080BDC0460800002080
:1012400080B500AF044B1A68034B02218A431A6031
:10125000C046BD4680BDC04610E000E080B500AF8E
:10126000044B1A68034B02210A431A60C046BD466C
:1012700080BDC04610E000E080B582B000AF78606D
:1012800039607B681B68054A1A403B681A437B68D3
:101290001A60C046BD4602B080BDC046FFFF3FFF9A
:1012A00080B582B000AF78607B681A68C0231B04E9
:1012B00013401800BD4602B080BD80B584B000AFB9
:1012C000F860B9607A60FB685B69BA6804210A401B
:1012D000072191400A00D2431A40BB6804210B4009
:1012E000796899400B001A43FB685A61C046BD46B5
:1012F00004B080BD80B582B000AF786039607B6893
:101300005B693A6804210A40072191400A001A40AB
:101310003B6804210B40DA4013001800BD4602B0C0
:1013200080BD80B582B000AF78607B68DA68C0238A
:101330001B01134001D1012300E000231800BD462A
:1013400002B080BD80B584B000AFF860B9607A604B
:10135000FB689B6ABA681F210A400F2191400A006E
:10136000D2431A407B689B0E0F211940BB681F2097
:10137000034099400B001A43FB689A62C046BD4681
:1013800004B080BD80B582B000AF786039607B6802
:101390009A6A3B685B025B0A1A437B689A62C046A2
:1013A000BD4602B080BD80B582B000AF78603960C4
:1013B0007B689B6A3A685202520AD2431A407B68A1
:1013C0009A62C046BD4602B080BD000080B584B0C0
:1013D00000AFF860B9607A60FB685B69BA681202B6
:1013E000D2431A40BB681B0279680B4004490B408A
:1013F0001A43FB685A61C046BD4604B080BDC04672
:1014000000FFFF7F80B582B000AF78607B689B688B
:10141000054A1340802252051A437B689A60C046F1
:10142000BD4602B080BDC046E8FFFF6F80B582B008
:1014300000AF78607B689A6880235B051A40802340
:101440005B059A4201D1012300E000231800BD464C
:1014500002B080BD80B582B000AF78607B689B68C9
:10146000044A134001221A437B689A60C046BD4675
:1014700002B080BDE8FFFF7F80B582B000AF78602A
:101480007B689B68044A134002221A437B689A6077
:10149000C046BD4602B080BDE8FFFF7F80B582B088
:1014A00000AF78607B689B6801221340012B01D15B
:1014B000012300E000231800BD4602B080BD80B5C6
:1014C00082B000AF78607B689B6802221340022BD9
:1014D00001D1012300E000231800BD4602B080BD09
:1014E00080B582B000AF78607B689B68044A134087
:1014F00004221A437B689A60C046BD4602B080BD94
:10150000E8FFFF7F80B582B000AF78607B689B68A2
:10151000044A134010221A437B689A60C046BD46B5
:1015200002B080BDE8FFFF7F80B582B000AF786079
:101530007B689B6804221340042B01D1012300E047
:1015400000231800BD4602B080BD000080B588B001
:1015500000AF78601F23FB1800221A700023BB61C4
:1015600000237B610023FB607B68002B01D10123FA
:101570007EE17B689B6D002B0AD17B681800FFF72A
:10158000DFFB7B680022DA657B68542200219954D6
:101590007B681B681800FFF749FF031E14D17B68A6
:1015A0001B681800FFF72EFFB34B1B68B3491800E8
:1015B000FEF7BCFD03005B00FB6002E0FB68013B43
:1015C000FB60FB68002BF9D17B681B681800FFF7F4
:1015D0002DFF031E0FD17B689B6D10221A437B6881
:1015E0009A657B68DB6D01221A437B68DA651F23ED
:1015F000FB1801221A707B681B681800FFF794FF24
:1016000003003B617B689B6D1022134000D022E1F8
:101610003B69002B00D01EE17B689B6D984A13400C
:1016200002221A437B689A657B681B681800FFF7E3
:1016300035FF031E00D0ADE07B689A687B681B7E97
:101640009B031A437B685B7EDB031A437B689B7EAC
:101650005B031A437B681B6B002B02D080235B016A
:1016600000E000231A437B68DB681A437B681B6930
:10167000002B04DA7B681B695B005B0801E08023B8
:101680009B031A437B682C215B5C5B001343BA69A4
:101690001343BB617B6820229B5C012B15D17B68C7
:1016A0009B7E002B05D1BB69802252021343BB6194
:1016B0000BE07B689B6D20221A437B689A657B68F0
:1016C000DB6D01221A437B68DA657B685B6A002B5D
:1016D0000AD07B685A6AE0235B001A407B689B6AE9
:1016E0001343BA691343BB617B681B68DB68654AB7
:1016F000134019007B681B68BA690A43DA607B688B
:101700005B689B0F9A077B68DB6C13437A69134312
:101710007B617B683C229B5C012B11D17B685B6801
:101720009B0F9A077B681B6C1A437B685B6C1A43A0
:101730007B689B6C1A437B691343012213437B61D3
:101740007B681B681B69504A134019007B681B6843
:101750007A690A431A617B685A68C0231B069A4259
:1017600018D07B685A688023DB059A4212D07B68C8
:101770005A6880231B069A420CD0444B1B68444A8B
:10178000134019007B685A68F0239B031A403F4BB3
:101790000A431A607B6818687B685B6B1A0000213B
:1017A000FFF78BFD7B6818687B689B6B39491A00D3
:1017B000FFF783FD7B681B69002B09D17B681B68E1
:1017C0009A6A7B681B68102149420A439A6218E0B2
:1017D0007B681A6980239B039A4212D17B681B683D
:1017E0009B6A7B68DB69013B9B001C221340102233
:1017F00052429A4011007B681A6E7B681B680A434C
:101800009A627B681B6800211800FFF773FD0200D5
:101810007B685B6B9A420BD17B680022DA657B6840
:101820009B6D0322934301221A437B689A651CE057
:101830007B689B6D1222934310221A437B689A6542
:101840007B68DB6D01221A437B68DA651F23FB1876
:1018500001221A7009E07B689B6D10221A437B6895
:101860009A651F23FB1801221A701F23FB181B788F
:101870001800BD4608B080BD00000020400D0300E8
:10188000FDFEFFFF0102DEFF02FCFF1F08270140F3
:10189000FFFFC3FF04FFFF7FB0B584B000AF7860E7
:1018A0007B681B681800FFF73FFE031E35D17B687D
:1018B00054229B5C012B01D1022335E07B6854222A
:1018C000012199540F257C197B68180000F01AFB40
:1018D000030023707B191B78002B19D17B689B6D4B
:1018E000134A1340802252001A437B689A657B6832
:1018F0000022DA657B681B681C221A607B68542210
:10190000002199547B681B681800FFF7E9FD08E087
:101910007B6854220021995403E00F23FB18022214
:101920001A700F23FB181B781800BD4604B0B0BD19
:10193000FEF0FFFFB0B584B000AF78607B68542242
:101940009B5C012B01D1022329E07B6854220121F9
:1019500099540F257C197B68180000F097FA030052
:1019600023707B191B78002B12D17C197B6818001F
:1019700000F046FB030023707B191B78002B07D176
:101980007B689B6D084A134001221A437B689A6565
:101990007B685422002199540F23FB181B781800F0
:1019A000BD4604B0B0BDC046FEFEFFFF80B584B0AA
:1019B00000AF786039607B685B69082B02D108232F
:1019C000FB600FE07B681B68DB680122134007D0D7
:1019D0007B689B6D20221A437B689A6501236CE02B
:1019E0000423FB60FFF7FEFB0300BB6019E03B68CC
:1019F000013316D0FFF7F6FB0200BB68D31A3A6832
:101A00009A4202D33B68002B0BD17B689B6D04226A
:101A10001A437B689A657B685422002199540323FA
:101A20004BE07B681B681B68FA681340DFD07B685B
:101A30009B6D802292001A437B689A657B681B68C5
:101A40001800FFF76EFC031E2ED07B689B7E002BD8
:101A50002AD17B681B681B6808221340082B23D1FE
:101A60007B681B681800FFF75FFD031E10D17B68C1
:101A70001B685A687B681B680C218A435A607B6824
:101A80009B6D104A134001221A437B689A650BE054
:101A90007B689B6D20221A437B689A657B68DB6DAF
:101AA00001221A437B68DA657B681B7E002B03D119
:101AB0007B681B680C221A6000231800BD4604B026
:101AC00080BDC046FEFEFFFF80B582B000AF7860EB
:101AD0007B681B681B6C1800BD4602B080BD00000F
:101AE00080B586B000AF786039601723FB180022FC
:101AF0001A700023FB607B6854229B5C012B01D190
:101B00000223BEE17B685422012199547B681B6843
:101B10001800FFF709FD031E00D0A1E13B685B68D8
:101B2000022B00D152E17B681A6980231B069A427E
:101B300004D07B681B69C24A934208D17B681A684B
:101B40003B681B6819001000FFF71CFCEDE07B6888
:101B50001A6E3B685B681F210B400F2199400B00F8
:101B6000DB43134019003B681B685B025B0A05D12D
:101B70003B681B689B0E1F221340BCE03B681B6840
:101B80000122134000D0B5E03B681B6802221340DD
:101B900000D0ADE03B681B680422134000D0A5E0F4
:101BA0003B681B680822134000D09DE03B681B681F
:101BB0001022134000D095E03B681B6820221340A0
:101BC00000D08DE03B681B684022134000D085E0C8
:101BD0003B681B688022134000D07DE03B681A6898
:101BE00080235B00134000D074E03B681A688023B8
:101BF0009B00134000D06BE03B681A688023DB0039
:101C0000134000D062E03B681A6880231B01134038
:101C100000D059E03B681A6880235B01134051D122
:101C20003B681A6880239B01134049D13B681A68BE
:101C30008023DB01134041D13B681A6880231B02DB
:101C4000134039D13B681A6880235B02134031D1BD
:101C50003B681A6880239B02134029D13B681A68AD
:101C60008023DB02134021D13B681A6880231B03C9
:101C7000134019D13B681A6880235B03134011D1CC
:101C80003B681A6880239B03134009D13B681A689C
:101C90008023DB03134001D016232CE000232AE02D
:101CA000152328E0142326E0132324E0122322E046
:101CB000112320E010231EE00F231CE00E231AE066
:101CC0000D2318E00C2316E00B2314E00A2312E086
:101CD000092310E008230EE007230CE006230AE0A6
:101CE000052308E0042306E0032304E0022302E0C6
:101CF000012300E000233A6852681F20024093400D
:101D00000A001A437B681A663B685B689B085A1C8A
:101D10007B68DB699A4208D87B6818683B68596819
:101D20003B681B681A00FFF70DFB7B6818683B686F
:101D300019683B689B681A00FFF748FB3B681B6803
:101D4000002B00DB96E03F4B1800FFF7A9FA0300D9
:101D50003B613B681B683C4A934223D13A6980232C
:101D60001B0413401ED13B69802212041343354AE1
:101D700019001000FFF780FA344B1B683449180033
:101D8000FEF7D4F903001A0013005B009B189B00B8
:101D90000133FB6002E0FB68013BFB60FB68002B4A
:101DA000F9D167E03B681B682A4A934262D13A69DD
:101DB0008023DB0313405DD13B698022D2031343B0
:101DC000204A19001000FFF757FA53E07B681A69A0
:101DD00080231B069A4204D07B681B69184A9342F1
:101DE00007D17B681A683B681B6819001000FFF771
:101DF000DAFA3B681B68002B3CDA124B1800FFF73D
:101E00004FFA03003B613B681B680F4A934208D1BD
:101E10003B69114A13400B4A19001000FFF72CFAD6
:101E200028E03B681B680B4A934223D13B690B4A6D
:101E30001340044A19001000FFF71EFA1AE0C046CA
:101E40000400008008270140000200A400000020D8
:101E5000400D0300000400A8FFFF7FFFFFFFBFFF4E
:101E60007B689B6D20221A437B689A651723FB18B9
:101E700001221A707B685422002199541723FB1801
:101E80001B781800BD4606B080BDC04680B584B042
:101E900000AF78607B681B681800FFF745FB031EE6
:101EA0002BD07B681B681800FFF709FB031E04D1C9
:101EB0007B681B681800FFF725FBFFF793F9030009
:101EC000FB6014E0FFF78EF90200FB68D31A022BC7
:101ED0000DD97B689B6D10221A437B689A657B68DD
:101EE000DB6D01221A437B68DA65012306E07B681B
:101EF0001B689B6804221340E4D100231800BD46F0
:101F000004B080BD80B584B000AF78600023BB60B2
:101F10007B681B681800FFF7C1FA031E62D17B685B
:101F20001B689B68324A13400DD07B689B6D102262
:101F30001A437B689A657B68DB6D01221A437B68D4
:101F4000DA6501234FE07B681B681800FFF782FA0F
:101F5000284B1800FFF7A4F9020080231B0413404C
:101F60000FD0254B1B6825491800FEF7DFF803004A
:101F70000133BB6002E0BB68013BBB60BB68002B68
:101F8000F9D17B685B7E012B2CD0FFF72BF9030086
:101F9000FB6020E07B681B681800FFF77FFA031ED8
:101FA00004D17B681B681800FFF754FAFFF71AF991
:101FB0000200FB68D31A022B0DD97B689B6D10229F
:101FC0001A437B689A657B68DB6D01221A437B6844
:101FD000DA65012307E07B681B681B680122134058
:101FE000012BD7D100231800BD4604B080BDC046E8
:101FF000170000800827014000000020400D03006A
:1020000080B584B000AF78607B681B681800FFF76C
:1020100056FA0300FB607B681B681800FFF73EFA66
:10202000031E40D0FB68002B3DD17B681B689B687A
:1020300005221340012B0DD17B681B681800FFF7A8
:102040001BFA7B681B6803221A60FFF7CBF80300BA
:10205000BB6022E07B689B6D10221A437B689A6507
:102060007B68DB6D01221A437B68DA6501231BE084
:10207000FFF7B8F80200BB68D31A022B0DD97B68B2
:102080009B6D10221A437B689A657B68DB6D012289
:102090001A437B68DA65012306E07B681B689B684E
:1020A00001221340E4D100231800BD4604B080BDD6
:1020B00080B582B000AF0200FB1D1A70FB1D1B78BB
:1020C0007F2B09D8FB1D1B781A001F231A40044BD5
:1020D000012191400A001A60C046BD4602B080BD91
:1020E00000E100E090B583B000AF02003960FB1D55
:1020F0001A70FB1D1B787F2B28D82F4AFB1D1B78DD
:102100005BB29B08C0339B009B58FA1D12781100EC
:1021100003220A40D200FF2191400A00D2431A4014
:1021200011003B689B01FF221A40FB1D1B78180021
:1021300003230340DB009A401F48FB1D1B785BB262
:102140009B080A43C0339B001A5031E01B4AFB1D19
:102150001B7819000F230B40083B9B0806339B009C
:10216000D31804331B68FA1D1278110003220A40A9
:10217000D200FF2191400A00D2431A4011003B686F
:102180009B01FF221A40FB1D1B781800032303400C
:10219000DB009A400948FB1D1B781C000F232340DD
:1021A000083B9B080A4306339B00C31804331A609C
:1021B000C046BD4603B090BD00E100E000ED00E088
:1021C00080B582B000AF78607B685A1E80235B04C4
:1021D0009A4201D3012310E00A4B7A68013A5A600F
:1021E00001235B4203211800FFF77CFF054B00220F
:1021F0009A60044B07221A6000231800BD4602B003
:1022000080BDC04610E000E080B584B000AFB9608A
:102210007A600F217B18021C1A70BA687B181B7831
:102220005BB211001800FFF75DFFC046BD4604B069
:1022300080BD80B582B000AF0200FB1D1A70FB1D8F
:102240001B785BB21800FFF733FFC046BD4602B0F3
:1022500080BD80B582B000AF78607B681800FFF762
:10226000AFFF03001800BD4602B080BD80B586B048
:1022700000AF7860396000233B6153E13B681B6825
:1022800001213A6991400A001340FB60FB68002B72
:1022900000D144E13B685B68022B03D03B685B687C
:1022A000122B25D13B69DA087B6808329200D3589B
:1022B0007B613B69072213409B000F229A40130069
:1022C000DA437B6913407B613B681B690F221A402C
:1022D0003B6907210B409B009A4013007A69134326
:1022E0007B613B69DA087B68083292007969D150DA
:1022F0007B681B687B613B695B0003229A4013008B
:10230000DA437B6913407B613B685B6803221A40B8
:102310003B695B009A4013007A6913437B617B68D9
:102320007A691A603B685B68012B0BD03B685B687D
:10233000022B07D03B685B68112B03D03B685B68BE
:10234000122B30D17B689B687B613B695B00032269
:102350009A401300DA437B6913407B613B68DA687B
:102360003B695B009A4013007A6913437B617B6889
:102370007A699A607B685B687B6101223B699A405D
:102380001300DA437B6913407B613B685B681B0980
:1023900001221A403B699A4013007A6913437B611A
:1023A0007B687A695A603B685B68032B17D07B684F
:1023B000DB687B613B695B0003229A401300DA43D0
:1023C0007B6913407B613B689A683B695B009A407C
:1023D00013007A6913437B617B687A69DA603B6832
:1023E0005A6880235B05134000D198E0534A3B694B
:1023F0009B0818339B009B587B613B690322134069
:10240000DB000F229A401300DA437B6913407B61A3
:102410007A68A023DB059A4219D07B68484A934228
:1024200013D07B68474A93420DD07B68464A93425B
:1024300007D07B68454A934201D1052308E0062373
:1024400006E0032304E0022302E0012300E000236E
:102450003A6903210A40D20093407A6913437B61B1
:1024600036493B699B0818339B007A695A50334AB6
:102470008023D3587B61FB68DA437B6913407B611F
:102480003B685A6880235B02134003D07A69FB687B
:1024900013437B61294980227B698B50274A84231F
:1024A000D3587B61FB68DA437B6913407B613B68EF
:1024B0005A6880239B02134003D07A69FB68134358
:1024C0007B611E4984227B698B501C4B1B687B619E
:1024D000FB68DA437B6913407B613B685A68802361
:1024E0005B03134003D07A69FB6813437B61134B92
:1024F0007A691A60114B5B687B61FB68DA437B6920
:1025000013407B613B685A6880239B03134003D0D0
:102510007A69FB6813437B61084B7A695A603B69AF
:1025200001333B613B681A683B69DA40131E00D0F7
:10253000A4E6C046C046BD4606B080BD00180240B5
:102540000004005000080050000C0050001400501F
:1025500080B584B000AF78600A00BB1C1A807B682D
:102560001B69BA1C1288134004D00F23FB180122E8
:102570001A7003E00F23FB1800221A700F23FB18B8
:102580001B781800BD4604B080BD80B582B000AF96
:10259000786008001100BB1C021C1A807B1C0A1CFE
:1025A0001A707B1C1B78002B04D0BB1C1A887B681C
:1025B0009A6103E0BB1C1A887B689A62C046BD46DC
:1025C00002B080BD80B582B000AF0200BB1D1A8092
:1025D000104BDB68BA1D1288134008D00D4BBA1D92
:1025E0001288DA60BB1D1B88180000F015F8094B33
:1025F0001B69BA1D1288134008D0064BBA1D1288F9
:102600001A61BB1D1B881800FDF72CFFC046BD4694
:1026100002B080BD0018024080B582B000AF020059
:10262000BB1D1A80C046BD4602B080BD80B582B0D9
:1026300000AF78600A00FB1C1A70094B1A69084B3E
:1026400004218A431A61FB1C1B78012B01D130BF86
:1026500002E040BF20BF20BFC046BD4602B080BDE3
:1026600000ED00E080B586B000AF78607B68002B9D
:1026700001D10123D0E17B681B680122134000D106
:1026800069E0C84B9B68382213407B617B69082B4B
:1026900005D17B685B68002B5DD10123BCE17B68C1
:1026A0005A6880235B029A4207D1BE4B1A68BD4B21
:1026B000802149020A431A6020E07B685A68A023FF
:1026C000DB029A420ED1B74B1A68B64B8021C90281
:1026D0000A431A60B34B1A68B24B802149020A437D
:1026E0001A600BE0AF4B1A68AE4BAF490A401A6054
:1026F000AC4B1A68AB4BAD490A401A607B685B680B
:10270000002B14D0FEF76EFD03003B6108E0FEF7DE
:1027100069FD02003B69D31A642B01D903237BE1D5
:10272000A04B1A6880239B021340F0D013E0FEF701
:1027300059FD03003B6108E0FEF754FD02003B69D0
:10274000D31A642B01D9032366E1964B1A688023C0
:102750009B021340F0D17B681B680222134000D11A
:1027600086E0904B9B68382213407B617B69002B8D
:102770002FD17B68DB68002B01D101234CE1894B11
:102780005B688B4A134019007B685B691A02854BB2
:102790000A435A607B69002B12D1824B1B68854A21
:1027A000134019007B681A697E4B0A431A607D4BFF
:1027B0001B68DB0A072213407F4ADA407F4B1A600E
:1027C0007F4B1B681800FEF7B1FC031E50D001239D
:1027D00022E17B68DB68002B30D0724B1B68754AA6
:1027E000134019007B681A696E4B0A431A606D4BDF
:1027F0001A686C4B802149000A431A60FEF7F2FC0C
:1028000003003B6108E0FEF7EDFC02003B69D31AD0
:10281000022B01D90323FFE0624B1A688023DB00FF
:102820001340F0D05F4B5B68614A134019007B682E
:102830005B691A025B4B0A435A6019E0594B1A68EC
:10284000584B60490A401A60FEF7CCFC03003B611C
:1028500008E0FEF7C7FC02003B69D31A022B01D93E
:102860000323D9E04F4B1A688023DB001340F0D1DB
:102870007B681B680822134042D04A4B9B68382271
:102880001340182B05D17B689B69002B38D101239D
:10289000C2E07B689B69002B19D0424B1A6E414BFA
:1028A00001210A431A66FEF79DFC03003B6108E024
:1028B000FEF798FC02003B69D31A022B01D90323CF
:1028C000AAE0384B1B6E02221340F1D018E0354BC2
:1028D0001A6E344B01218A431A66FEF783FC03000B
:1028E0003B6108E0FEF77EFC02003B69D31A022B35
:1028F00001D9032390E02B4B1B6E02221340F1D130
:102900007B681B680422134000D184E00F23FB186E
:1029100000221A70234B9B6838221340202B06D1CB
:102920007B689B68002B00D075E0012374E07B6816
:102930009B68012B06D11B4BDA6D1A4B01210A4310
:10294000DA651CE07B689B68052B0CD1154BDA6DB2
:10295000144B04210A43DA65124BDA6D114B012145
:102960000A43DA650BE00F4BDA6D0E4B01218A4307
:10297000DA650C4BDA6D0B4B04218A43DA657B6810
:102980009B68002B28D0FEF72DFC03003B611DE067
:10299000FEF728FC02003B69D31A0B4A934215D973
:1029A000032339E000100240FFFFFEFFFFFFFBFFA3
:1029B000FF80FFFFFFC7FFFF006CDC02000000206C
:1029C00004000020FFFEFFFF88130000144BDB6DA6
:1029D00002221340DCD013E0FEF704FC03003B614D
:1029E00009E0FEF7FFFB02003B69D31A0D4A934250
:1029F00001D9032310E00A4BDB6D02221340F0D112
:102A00000F23FB181B78012B05D1054BDA6B044B08
:102A100005490A40DA6300231800BD4606B080BDB0
:102A20000010024088130000FFFFFFEF80B584B064
:102A300000AF786039607B68002B01D10123E9E0A9
:102A4000764B1B68072213403A689A421ED9734B93
:102A50001B68072293431900704B3A680A431A60B7
:102A6000FEF7C0FB0300FB6009E0FEF7BBFB0200C2
:102A7000FB68D31A6A4A934201D90323CAE0674B21
:102A80001B68072213403A689A42EED17B681B68A4
:102A90000222134017D07B681B680422134008D021
:102AA000604B9B68604A1A405E4BB02109010A43A3
:102AB0009A605C4B9B685D4A134019007B68DA683A
:102AC000584B0A439A607B681B680122134055D01B
:102AD000544B1B681C22934319007B689A68514B26
:102AE0000A431A607B685B68012B07D14D4B1A685B
:102AF00080239B0213401FD101238BE07B685B681E
:102B0000002B07D1474B1A688023DB00134013D1F9
:102B100001237FE07B685B68032B06D1414B1B6E72
:102B20000222134008D1012374E03E4BDB6D0222E8
:102B3000134001D101236DE03A4B9B680722934378
:102B400019007B685A68374B0A439A60FEF74AFBC4
:102B50000300FB6009E0FEF745FB0200FB68D31AA7
:102B60002F4A934201D9032354E02E4B9B6838220D
:102B70001A407B685B68DB009A42ECD1274B1B68EC
:102B8000072213403A689A421ED2244B1B68072240
:102B900093431900214B3A680A431A60FEF722FB5F
:102BA0000300FB6009E0FEF71DFB0200FB68D31A7F
:102BB0001B4A934201D903232CE0184B1B680722C0
:102BC00013403A689A42EED17B681B680422134096
:102BD00009D0144B9B68164A134019007B681A6988
:102BE000104B0A439A6000F02BF801000D4B9B68D4
:102BF0001B0A0F221A400F4B9200D3581F2213407A
:102C00000A00DA400C4B1A600C4B1B681800FEF7E8
:102C10008DFA03001800BD4604B080BD00200240BC
:102C20008813000000100240FF84FFFFFFF0FFFF49
:102C3000FF8FFFFF44520008000000200400002026
:102C400080B582B000AF1C4B9B68382213400FD177
:102C5000194B1B68DB0A0722134001229A4013001C
:102C60003B6039681548FDF761FA03007B601EE0A0
:102C7000114B9B6838221340082B02D10F4B7B600D
:102C800015E00D4B9B6838221340202B03D1802385
:102C90001B027B600BE0084B9B6838221340182B0B
:102CA00003D1FA23DB017B6001E000237B607B68BA
:102CB0001800BD4602B080BD00100240006CDC026E
:102CC00080B500AF024B1B681800BD4680BDC046F2
:102CD0000000002080B500AFFFF7F2FF0100074BB6
:102CE0009B681B0B07221A40054B9200D3581F22EA
:102CF0001340D9400B001800BD4680BD00100240B3
:102D00008452000880B586B000AF78601323FB18AA
:102D100000221A701223FB1800221A707B681A68AE
:102D200080239B02134000D179E011203B18002240
:102D30001A70644BDA6B80235B05134010D1614B32
:102D4000DA6B604B802149050A43DA635D4BDA6B2D
:102D500080235B051340BB60BB683B1801221A70DF
:102D6000584BDA6DC0239B0013407B617B69002BBD
:102D700019D07B689B697A699A4214D0514BDB6DFC
:102D8000514A13407B614F4BDA6D4E4B8021490213
:102D90000A43DA654B4BDA6D4A4B4C490A40DA6517
:102DA000484B7A69DA657B690122134016D0FEF739
:102DB00019FA0300FB600CE0FEF714FA0200FB684E
:102DC000D31A434A934204D91323FB1803221A70DF
:102DD00004E03C4BDB6D02221340EDD01323FB18C3
:102DE0001B78002B0AD1374BDB6D374A1340190093
:102DF0007B689A69334B0A43DA6505E01223FB18B6
:102E00001322BA1812781A701123FB181B78012BA1
:102E100005D12C4BDA6B2B4B2E490A40DA637B68C9
:102E20001B680122134009D0264B5B6D032293439C
:102E300019007B689A68234B0A435A657B681B68B4
:102E40004022134009D01F4B5B6D234A13401900E9
:102E50007B68DA681B4B0A435A657B681A688023D3
:102E6000DB01134008D0174B5B6D9B0099087B6812
:102E70005A69144B0A435A657B681A6880231B0100
:102E8000134009D00F4B5B6D144A134019007B6847
:102E90001A690C4B0A435A657B681B68002B09DAD8
:102EA000084B1B68E022934319007B685A68054B66
:102EB0000A431A601223FB181B781800BD4606B09F
:102EC00080BDC04600100240FFFCFFFFFFFFFEFF79
:102ED00088130000FFFFFFEFFFCFFFFFFF3FFFFF63
:102EE00080B582B000AF78607B68002B01D10123F0
:102EF0004AE07B683D229B5CDBB2002B07D17B68FC
:102F00003C22002199547B681800FDF79BFF7B68E9
:102F10003D22022199547B681A687B6804331900AA
:102F2000100000F05BFC7B684822012199547B680B
:102F30003E22012199547B683F22012199547B68EC
:102F40004022012199547B684122012199547B68D8
:102F50004222012199547B684322012199547B68C4
:102F60004422012199547B684522012199547B68B0
:102F70004622012199547B684722012199547B689C
:102F80003D220121995400231800BD4602B080BDA6
:102F900080B584B000AF78607B683D229B5CDBB27B
:102FA000012B01D0012337E07B683D220221995497
:102FB0007B681B68DA687B681B6801210A43DA605A
:102FC0007B681B68164A934204D07B681B68154ACD
:102FD000934216D17B681B689B68134A1340FB60C1
:102FE000FB68062B16D0FA6880235B029A4211D048
:102FF0007B681B681A687B681B6801210A431A609A
:1030000008E07B681B681A687B681B6801210A431B
:103010001A6000E0C04600231800BD4604B080BD21
:10302000002C0140000400400700010080B582B080
:1030300000AF78607B68002B01D101234AE07B68F8
:103040003D229B5CDBB2002B07D17B683C22002138
:1030500099547B681800FDF7CFFE7B683D22022162
:1030600099547B681A687B6804331900100000F0DB
:10307000B5FB7B684822012199547B683E220121DF
:1030800099547B683F22012199547B684022012199
:1030900099547B684122012199547B684222012185
:1030A00099547B684322012199547B684422012171
:1030B00099547B684522012199547B68462201215D
:1030C00099547B684722012199547B683D22012154
:1030D000995400231800BD4602B080BD80B584B06D
:1030E00000AF786039603B68002B08D17B683E22D6
:1030F0009B5CDBB2013B5A1E9341DBB237E03B687D
:10310000042B08D17B683F229B5CDBB2013B5A1E3B
:103110009341DBB22BE03B68082B08D17B6840224F
:103120009B5CDBB2013B5A1E9341DBB21FE03B6864
:103130000C2B08D17B6841229B5CDBB2013B5A1E01
:103140009341DBB213E03B68102B08D17B6842222D
:103150009B5CDBB2013B5A1E9341DBB207E07B680C
:1031600043229B5CDBB2013B5A1E9341DBB2002B36
:1031700001D001237BE03B68002B04D17B683E2219
:103180000221995423E03B68042B04D17B683F2241
:10319000022199541BE03B68082B04D17B68402234
:1031A0000221995413E03B680C2B04D17B68412227
:1031B000022199540BE03B68102B04D17B6842221A
:1031C0000221995403E07B684322022199547B68D1
:1031D0001B6839680122180000F008FE7B681B6834
:1031E000254A934209D07B681B68244A934204D045
:1031F0007B681B68224A934201D1012300E000232F
:10320000002B08D07B681B685A6C7B681B68802188
:1032100009020A435A647B681B68174A934204D028
:103220007B681B68174A934216D17B681B689B68B2
:10323000154A1340FB60FB68062B16D0FA68802302
:103240005B029A4211D07B681B681A687B681B6816
:1032500001210A431A6008E07B681B681A687B68D2
:103260001B6801210A431A6000E0C04600231800D1
:10327000BD4604B080BDC046002C01400044014062
:1032800000480140000400400700010080B582B002
:1032900000AF786039607B681B68396800221800CD
:1032A00000F0A4FD7B681B68354A934209D07B6817
:1032B0001B68344A934204D07B681B68324A9342AD
:1032C00001D1012300E00023002B13D07B681B6891
:1032D0001B6A2E4A13400DD17B681B681B6A2C4A5F
:1032E000134007D17B681B685A6C7B681B682949AF
:1032F0000A405A647B681B681B6A244A13400DD13C
:103300007B681B681B6A224A134007D17B681B68D5
:103310001A687B681B6801218A431A603B68002B8E
:1033200004D17B683E220121995423E03B68042BA1
:1033300004D17B683F22012199541BE03B68082B94
:1033400004D17B6840220121995413E03B680C2B87
:1033500004D17B684122012199540BE03B68102B7A
:1033600004D17B6842220121995403E07B68432207
:103370000121995400231800BD4602B080BDC0460B
:10338000002C0140004401400048014011110000A0
:1033900044040000FF7FFFFF80B584B000AF786079
:1033A0007B681B68DB68FB607B681B681B69BB6014
:1033B000BB680222134021D0FB68022213401DD0BB
:1033C0007B681B68032252421A617B6801221A77CC
:1033D0007B681B689B690322134004D07B6818003C
:1033E00000F0E4F907E07B68180000F0D7F97B688B
:1033F000180000F0E3F97B6800221A77BB6804220A
:10340000134022D0FB68042213401ED07B681B6847
:10341000052252421A617B6802221A777B681B6878
:103420009A69C0239B00134004D07B68180000F009
:10343000BDF907E07B68180000F0B0F97B68180060
:1034400000F0BCF97B6800221A77BB6808221340A1
:1034500021D0FB68082213401DD07B681B6809221D
:1034600052421A617B6804221A777B681B68DB6909
:103470000322134004D07B68180000F097F907E09E
:103480007B68180000F08AF97B68180000F096F954
:103490007B6800221A77BB681022134022D0FB6899
:1034A000102213401ED07B681B68112252421A6101
:1034B0007B6808221A777B681B68DA69C0239B0047
:1034C000134004D07B68180000F070F907E07B68B7
:1034D000180000F063F97B68180000F06FF97B6852
:1034E00000221A77BB68012213400CD0FB6801222E
:1034F000134008D07B681B68022252421A617B6825
:103500001800FCF7E5FFBB68802213400CD0FB6875
:103510008022134008D07B681B68812252421A61C6
:103520007B68180000F0F0FCBA6880235B00134051
:103530000BD0FB688022134007D07B681B68164ABB
:103540001A617B68180000F0E7FCBB68402213405A
:103550000CD0FB684022134008D07B681B684122D6
:1035600052421A617B68180000F030F9BB682022D3
:1035700013400CD0FB682022134008D07B681B68E6
:10358000212252421A617B68180000F0B5FCC04647
:10359000BD4604B080BDC046FFFEFFFF80B586B0CB
:1035A00000AFF860B9607A601723FB1800221A7028
:1035B000FB683C229B5C012B01D10223E5E0FB6808
:1035C0003C22012199547B68142B00D9D1E07B68FF
:1035D0009A00704BD3181B689F46FB681B68BA683B
:1035E0001100180000F066F9FB681B689A69FB6817
:1035F0001B6808210A439A61FB681B689A69FB688B
:103600001B6804218A439A61FB681B689969BB683F
:103610001A69FB681B680A439A61AFE0FB681B6884
:10362000BA681100180000F0C5F9FB681B689A69B8
:10363000FB681B68802109010A439A61FB681B68CB
:103640009A69FB681B6854490A409A61FB681B68C9
:103650009969BB681B691A02FB681B680A439A6177
:103660008CE0FB681B68BA681100180000F020FAB3
:10367000FB681B68DA69FB681B6808210A43DA618A
:10368000FB681B68DA69FB681B6804218A43DA61FE
:10369000FB681B68D969BB681A69FB681B680A4329
:1036A000DA616BE0FB681B68BA681100180000F073
:1036B00081FAFB681B68DA69FB681B6880210901D5
:1036C0000A43DA61FB681B68DA69FB681B683249E8
:1036D0000A40DA61FB681B68D969BB681B691A027A
:1036E000FB681B680A43DA6148E0FB681B68BA683C
:1036F0001100180000F0C2FAFB681B685A6DFB68E5
:103700001B6808210A435A65FB681B685A6DFB68F1
:103710001B6804218A435A65FB681B68596DBB68A6
:103720001A69FB681B680A435A6527E0FB681B6837
:10373000BA681100180000F0FBFAFB681B685A6DAC
:10374000FB681B68802109010A435A65FB681B68F6
:103750005A6DFB681B6810490A405A65FB681B6874
:10376000596DBB681B691A02FB681B680A435A65DE
:1037700004E01723FB1801221A70C046FB683C22A4
:10378000002199541723FB181B781800BD4606B07A
:1037900080BDC046A4520008FFFBFFFF80B582B089
:1037A00000AF7860C046BD4602B080BD80B582B033
:1037B00000AF7860C046BD4602B080BD80B582B023
:1037C00000AF7860C046BD4602B080BD80B582B013
:1037D00000AF7860C046BD4602B080BD80B584B001
:1037E00000AF786039607B681B68FB607B682B4AA0
:1037F000934203D07B682A4A934208D1FB68702227
:103800009343FB603B685B68FA681343FB607B682B
:10381000224A93420FD07B68214A93420BD07B68A7
:10382000204A934207D07B681F4A934203D07B68AB
:103830001E4A934208D1FB681D4A1340FB603B6857
:10384000DB68FA681343FB60FB68802293431A002D
:103850003B685B691343FB607B68FA681A603B68EE
:103860009A687B68DA623B681A687B689A627B6850
:103870000A4A934207D07B680B4A934203D07B6885
:103880000A4A934203D13B681A697B681A637B68D2
:1038900001225A61C046BD4604B080BD002C0140E3
:1038A0000004004000200040004401400048014066
:1038B000FFFCFFFF80B586B000AF786039607B68A1
:1038C0001B6A7B617B681B6A012293431A007B6839
:1038D0001A627B685B683B617B689B69FB60FB6885
:1038E0002E4A1340FB60FB6803229343FB603B6856
:1038F0001B68FA681343FB607B69022293437B6178
:103900003B689B687A6913437B617B68244A9342D6
:1039100007D07B68234A934203D07B68224A9342B4
:103920000CD17B69082293437B613B68DB687A6931
:1039300013437B617B69042293437B617B68184A54
:10394000934207D07B68174A934203D07B68164A9C
:10395000934211D13B69154A13403B613B69144ABC
:1039600013403B613B685B693A6913433B613B68C9
:103970009B693A6913433B617B683A695A607B688B
:10398000FA689A613B685A687B685A637B687A690F
:103990001A62C046BD4606B080BDC0468FFFFEFF1E
:1039A000002C01400044014000480140FFFEFFFFA1
:1039B000FFFDFFFF80B586B000AF786039607B689F
:1039C0001B6A7B617B681B6A102293431A007B6829
:1039D0001A627B685B683B617B689B69FB60FB6884
:1039E0002C4A1340FB60FB682B4A1340FB603B688A
:1039F0001B681B02FA681343FB607B692022934318
:103A00007B613B689B681B017A6913437B617B6820
:103A1000224A93420DD17B69802293437B613B68AC
:103A2000DB681B017A6913437B617B694022934306
:103A30007B617B68194A934207D07B68184A93429E
:103A400003D07B68174A934213D13B69164A13404F
:103A50003B613B69154A13403B613B685B699B00D6
:103A60003A6913433B613B689B699B003A69134386
:103A70003B617B683A695A607B68FA689A613B6887
:103A80005A687B689A637B687A691A62C046BD4649
:103A900006B080BDFF8FFFFEFFFCFFFF002C014042
:103AA0000044014000480140FFFBFFFFFFF7FFFF1C
:103AB00080B586B000AF786039607B681B6A7B6137
:103AC0007B681B6A314A1A407B681A627B685B68B4
:103AD0003B617B68DB69FB60FB682D4A1340FB6040
:103AE000FB6803229343FB603B681B68FA6813433F
:103AF000FB607B69274A13407B613B689B681B0224
:103B00007A6913437B617B68234A93420DD17B69B9
:103B1000224A13407B613B68DB681B027A691343CE
:103B20007B617B691E4A13407B617B681A4A934222
:103B300007D07B681B4A934203D07B681A4A9342A2
:103B400013D13B69194A13403B613B69184A134042
:103B50003B613B685B691B013A6913433B613B680E
:103B60009B691B013A6913433B617B683A695A6060
:103B70007B68FA68DA613B685A687B68DA637B685D
:103B80007A691A62C046BD4606B080BDFFFEFFFFDF
:103B90008FFFFEFFFFFDFFFF002C0140FFF7FFFF3F
:103BA000FFFBFFFF0044014000480140FFEFFFFF23
:103BB000FFDFFFFF80B586B000AF786039607B68BB
:103BC0001B6A3B617B681B6A244A1A407B681A6245
:103BD0007B685B687B617B68DB69FB60FB68204A14
:103BE0001340FB60FB681F4A1340FB603B681B6887
:103BF0001B02FA681343FB603B691B4A13403B619D
:103C00003B689B681B033A6913433B617B68174A17
:103C1000934207D07B68164A934203D07B68154ACB
:103C2000934209D17B69144A13407B613B685B690D
:103C30009B017A6913437B617B687A695A607B6870
:103C4000FA68DA613B685A687B681A647B683A698B
:103C50001A62C046BD4606B080BDC046FFEFFFFFFA
:103C6000FF8FFFFEFFFCFFFFFFDFFFFF002C014087
:103C70000044014000480140FFBFFFFF80B586B00F
:103C800000AF786039607B681B6A3B617B681B6AA8
:103C9000214A1A407B681A627B685B687B617B689B
:103CA0005B6DFB60FB681D4A1340FB603B681B6853
:103CB000FA681343FB603B69194A13403B613B6858
:103CC0009B681B043A6913433B617B68154A934226
:103CD00007D07B68144A934203D07B68134A93420F
:103CE00009D17B690C4A13407B613B685B691B020D
:103CF0007A6913437B617B687A695A607B68FA68EA
:103D00005A653B685A687B689A657B683A691A62AB
:103D1000C046BD4606B080BDFFFFFEFF8FFFFEFF21
:103D2000FFFFFDFF002C014000440140004801401E
:103D300080B586B000AF786039607B681B6A3B61F4
:103D40007B681B6A224A1A407B681A627B685B6840
:103D50007B617B685B6DFB60FB681E4A1340FB6008
:103D60003B681B681B02FA681343FB603B691A4AF5
:103D700013403B613B689B681B053A6913433B61F9
:103D80007B68164A934207D07B68154A934203D05A
:103D90007B68144A934209D17B69134A13407B61C3
:103DA0003B685B699B027A6913437B617B687A6934
:103DB0005A607B68FA685A653B685A687B68DA65BE
:103DC0007B683A691A62C046BD4606B080BDC046EF
:103DD000FFFFEFFFFF8FFFFEFFFFDFFF002C014023
:103DE0000044014000480140FFFFFBFF80B586B062
:103DF00000AFF860B9607A60BB681F2213400122EF
:103E00009A4013007B61FB681B6A7A69D2431A40AF
:103E1000FB681A62FB681A6ABB681F210B4079684D
:103E200099400B001A43FB681A62C046BD4606B0B3
:103E300080BD000080B584B000AF786039607B68D9
:103E40003C229B5C012B01D102234AE07B683C228F
:103E5000012199547B683D22022199547B681B689B
:103E60005B68FB607B681B689B68BB607B681B684A
:103E70001E4A934208D1FB681D4A1340FB603B6811
:103E80005B68FA681343FB60FB6870229343FB6036
:103E90003B681B68FA681343FB607B681B68FA6821
:103EA0005A607B681B68114A934204D07B681B6888
:103EB000104A93420CD1BB6880229343BB603B689D
:103EC0009B68BA681343BB607B681B68BA689A60DA
:103ED0007B683D22012199547B683C220021995442
:103EE00000231800BD4604B080BDC046002C014030
:103EF000FFFF0FFF0004004080B582B000AF786084
:103F0000C046BD4602B080BD80B582B000AF7860CB
:103F1000C046BD4602B080BD80B582B000AF7860BB
:103F2000C046BD4602B080BD80B582B000AF7860AB
:103F30007B68002B01D1012346E07B6888229B58D7
:103F4000002B07D17B688422002199547B681800DC
:103F5000FCF7DEFF7B688822242199507B681B6870
:103F60001A687B681B6801218A431A607B689B6A18
:103F7000002B03D07B68180000F04EFA7B68180015
:103F800000F0CCF80300012B01D101231CE07B6879
:103F90001B685A687B681B680D490A405A607B6839
:103FA0001B689A687B681B682A218A439A607B6831
:103FB0001B681A687B681B6801210A431A607B68CA
:103FC000180000F0DDFA03001800BD4602B080BD05
:103FD000FFB7FFFF80B58AB002AFF860B9603B6001
:103FE000BB1D1A80FB6888229B58202B00D090E0D4
:103FF000BB68002B03D0BB1D1B88002B01D1012304
:1040000088E0FB689A6880235B019A4209D1FB68CB
:104010001B69002B05D1BB680122134001D001238D
:1040200078E0FB68902200219950FB6888222121CA
:104030009950FDF7D7F803007B61FB68BA1D542146
:1040400012885A52FB68BA1D562112885A52FB68D0
:104050009A6880235B019A4208D1FB681B69002B98
:1040600004D10023FB61BB68BB6103E0BB68FB615B
:104070000023BB6130E07A69F8683B680093130065
:104080000022802100F026FB031E05D0FB68882259
:104090002021995003233DE0FB69002B0BD1BB6924
:1040A0001B881A00FB681B68D205D20D9A62BB6997
:1040B0000233BB6107E0FB691A78FB681B689A62F0
:1040C000FB690133FB61FB6856229B5A9BB2013BA3
:1040D00099B2FB6856229952FB6856229B5A9BB2B2
:1040E000002BC8D17A69F8683B680093130000225E
:1040F000402100F0EFFA031E05D0FB688822202142
:104100009950032306E0FB68882220219950002360
:1041100000E002231800BD4608B080BD80B588B01D
:1041200000AF78601E23FB1800221A707B689A6823
:104130007B681B691A437B685B691A437B68DB6990
:1041400013437B617B681B681B68AB4A13401900F3
:104150007B681B687A690A431A607B681B685B6826
:10416000A64A134019007B68DA687B681B680A431B
:104170005A607B689B697B617B681B6A7A69134321
:104180007B617B681B689B689D4A134019007B68B4
:104190001B687A690A439A607B681B68DB6A0F2296
:1041A000934319007B685A6A7B681B680A43DA628A
:1041B0007B681B68934A934227D1934B5B6D032224
:1041C0001340032B17D01BD8022B0AD018D8002B72
:1041D00002D0012B0AD013E01F23FB1800221A7013
:1041E00021E01F23FB1802221A701CE01F23FB187A
:1041F00004221A7017E01F23FB1808221A7012E01D
:104200001F23FB1810221A700DE07B681B687F4A81
:10421000934204D11F23FB1800221A7003E01F23CE
:10422000FB1810221A707B68DA6980231B029A42FD
:1042300000D06FE01F23FB181B78082B1FD022DC57
:10424000042B17D01FDC002B02D0022B05D01AE064
:10425000FEF740FD0300BB611CE06B4B1B685B0974
:1042600007221340013319006948FBF75FFF030081
:10427000BB610FE0FEF7E4FC0300BB610AE08023B2
:104280001B02BB6106E00023BB611E23FB18012259
:104290001A70C046BB69002B00D197E07B685A6A50
:1042A0005C4B5200D35A1900B869FBF73FFF03007B
:1042B0005A007B685B685B08D2187B685B681900F2
:1042C0001000FBF733FF03003B613B690F2B1CD948
:1042D0003A6980235B029A4217D23B699AB20E2058
:1042E0003B180F218A431A803B695B089BB2072267
:1042F000134099B23B183A1812880A431A807B6817
:104300001B683A181288DA6060E01E23FB1801224D
:104310001A705BE01F23FB181B78082B1FD022DCD0
:10432000042B17D01FDC002B02D0022B05D01AE083
:10433000FEF7D0FC0300BB611CE0334B1B685B093C
:1043400007221340013319003148FBF7EFFE030049
:10435000BB610FE0FEF774FC0300BB610AE0802341
:104360001B02BB6106E00023BB611E23FB18012278
:104370001A70C046BB69002B28D07B685A6A254B4F
:104380005200D35A1900B869FBF7D0FE03001A0097
:104390007B685B685B08D2187B685B68190010005B
:1043A000FBF7C4FE03003B613B690F2B0AD93A6956
:1043B00080235B029A4205D23B699AB27B681B68F4
:1043C000DA6003E01E23FB1801221A707B686A2260
:1043D000012199527B686822012199527B68002251
:1043E0005A677B6800229A671E23FB181B78180007
:1043F000BD4608B080BDC046F369FFCFFFCFFFFFC9
:10440000FFF4FF110038014000100240004400405A
:10441000006CDC02F852000880B582B000AF786012
:104420007B689B6A082213400BD07B681B685B6823
:104430004A4A134019007B689A6B7B681B680A43E1
:104440005A607B689B6A012213400BD07B681B6813
:104450005B68434A134019007B68DA6A7B681B6813
:104460000A435A607B689B6A022213400BD07B6828
:104470001B685B683B4A134019007B681A6B7B68BA
:104480001B680A435A607B689B6A042213400BD066
:104490007B681B685B68344A134019007B685A6B61
:1044A0007B681B680A435A607B689B6A1022134032
:1044B0000BD07B681B689B682C4A134019007B68F3
:1044C000DA6B7B681B680A439A607B689B6A2022D0
:1044D00013400BD07B681B689B68254A134019006A
:1044E0007B681A6C7B681B680A439A607B689B6ACE
:1044F000402213401DD07B681B685B681D4A134037
:1045000019007B685A6C7B681B680A435A607B6899
:104510005A6C80235B039A420BD17B681B685B68F3
:10452000154A134019007B689A6C7B681B680A4324
:104530005A607B689B6A802213400BD07B681B68A3
:104540005B680E4A134019007B68DA6C7B681B6855
:104550000A435A60C046BD4602B080BDFF7FFFFFE0
:10456000FFFFFDFFFFFFFEFFFFFFFBFFFFEFFFFF72
:10457000FFDFFFFFFFFFEFFFFFFF9FFFFFFFF7FFE3
:1045800080B592B002AF78607B689022002199508C
:10459000FCF728FE0300FB637B681B681B6808228E
:1045A0001340082B2DD1FB6B802291037868474A7A
:1045B0000092002200F08EF8031E22D0EFF3108349
:1045C0007B627B6ABB630123BB62BB6A83F3108897
:1045D000C0467B681B681A687B681B6880218A4319
:1045E0001A60BB6BFB62FB6A83F31088C0467B6872
:1045F0008822202199507B6884220021995403232A
:1046000060E07B681B681B6804221340042B46D1C2
:10461000FB6B8022D10378682C4A0092002200F0C4
:1046200059F8031E3BD0EFF31083FB60FB687B63FC
:1046300001233B613B6983F31088C0467B681B689C
:104640001A687B681B6822490A401A607B6B7B6191
:104650007B6983F31088C046EFF31083BB61BB69AD
:104660003B630123FB61FB6983F31088C0467B68D1
:104670001B689A687B681B6801218A439A603B6BC0
:104680003B623B6A83F31088C0467B688C22202102
:1046900099507B68842200219954032312E07B689F
:1046A0008822202199507B688C22202199507B6898
:1046B0000022DA667B6800221A677B688422002168
:1046C000995400231800BD4610B080BDFFFFFF01C4
:1046D000DFFEFFFF80B584B000AFF860B9603B60DB
:1046E000FB1D1A704BE0BB69013348D0FCF77AFD23
:1046F00002003B68D31ABA699A4202D3BB69002B05
:1047000001D103234BE0FB681B681B6804221340A4
:1047100035D0FB681B68DB6908221340082B11D1D8
:10472000FB681B6808221A62FB68180000F03CF85E
:10473000FB68902208219950FB688422002199543B
:1047400001232CE0FB681B68DA6980231B011A40F7
:1047500080231B019A4212D1FB681B688022120140
:104760001A62FB68180000F01FF8FB6890222021F5
:104770009950FB6884220021995403230FE0FB68C1
:104780001B68DB69BA681340BA68D31A5A425341AE
:10479000DBB21A00FB1D1B789A42A4D0002318003C
:1047A000BD4604B080BD000080B58EB000AF78601B
:1047B000EFF310837B617B697B630123BB61BB6982
:1047C00083F31088C0467B681B681A687B681B6887
:1047D00026490A401A607B6BFB61FB6983F31088F2
:1047E000C046EFF310833B623B6A3B6301237B626D
:1047F0007B6A83F31088C0467B681B689A687B6875
:104800001B681B490A409A603B6BBB62BB6A83F31F
:104810001088C0467B68DB6E012B18D1EFF3108344
:10482000BB60BB68FB620123FB60FB6883F31088FD
:10483000C0467B681B681A687B681B6810218A4326
:104840001A60FB6A3B613B6983F31088C0467B6852
:104850008C22202199507B680022DA667B68002236
:104860005A67C046BD460EB080BDC046DFFEFFFFA2
:10487000FEFFFFEF0EB400B50B499CB01DAB0290DC
:104880000690079104910948094904CB05910068F5
:1048900002A9019300F0A2F90022029B1A701CB039
:1048A00008BC03B01847C046FFFFFF7F5800002038
:1048B0000802FFFF03008218934200D1704719706D
:1048C0000133F9E7014B18687047C04658000020D3
:1048D00070B500260C4C0D4D641BA410A64209D1E6
:1048E000002600F06DFC0A4C0A4D641BA410A64281
:1048F00005D170BDB300EB5898470136EEE7B30021
:10490000EB5898470136F2E7445300084453000837
:1049100048530008445300087047704770B50500BD
:10492000002910D00C1F2368002B00DAE41828009F
:1049300000F0E2F81D4A1368002B05D16360146093
:10494000280000F0E1F870BDA34208D920682118C2
:104950008B42F3D119685B6809182160EEE71A00F1
:104960005B68002B01D0A342F9D911685018A0420E
:104970000BD120680918501811608342E0D11868E3
:104980005B68411811605360DAE7A04202D90C233A
:104990002B60D5E7206821188B4203D119685B682A
:1049A0000918216063605460CAE7C0468C03002088
:1049B00070B50F4E0D0031680400002902D100F0DF
:1049C000A1FB30602900200000F09CFB431C0AD0B2
:1049D0000323C51C9D43A84207D0291A200000F0DC
:1049E00091FB013001D101256D42280070BDC04608
:1049F00090030020F7B50322CB1C93430833060035
:104A00001F000C2B38D20C27B94237D8300000F0E9
:104A100073F8384B00931B681C00002C33D139000D
:104A20003000FFF7C5FF0400431C5ED1009B1C68EB
:104A30002500002D4ED1002C51D023682900E31809
:104A40003000019300F05EFB019B834247D1236855
:104A50003000FF1A3900FFF7ABFF01303FD0236869
:104A6000DB192360009B1B68002B40D05A68A242D0
:104A700033D100225A6014E0002BC5DA0C23002544
:104A800033602800FEBD2168C91B20D40B2918D92A
:104A9000E2192760A34212D1009B1A60636811607B
:104AA00053603000250000F02FF807220B35231D3E
:104AB0009543EA1A9D42E4D05B1BA350E1E75A609C
:104AC000ECE76268A342D5D1009B1A60E9E72300B6
:104AD0006468A2E72C006D68ABE71300C4E70C2301
:104AE0003000336000F010F8CBE72760D9E75B6057
:104AF000FFDEC0468C03002010B50248FFF70CFF14
:104B000010BDC0468803002010B50248FFF705FF1E
:104B100010BDC04688030020F0B585B00193039214
:104B20008E68019A07000C000B68964231D88A897A
:104B30009021C9000A4229D0032021695B1A0293FF
:104B400063694343DD0FED18019B029801331B1885
:104B50006D10AB4200D91D00520529D5290038003F
:104B6000FFF748FF061E2DD0029A216900F0E7FAF0
:104B7000A289194B1A4080231343A381029B26610B
:104B8000F61826606561019EED1AA560019B9E42A4
:104B900000D9019E32000399206800F09FFA00209E
:104BA000A3689B1BA36023689B19236005B0F0BD1D
:104BB0002A00380000F0CCFA061EDFD13800216947
:104BC000FFF7ACFE0C2301203B60A2893433134372
:104BD000A3814042EAE7C0467FFBFFFFF0B5A1B0EA
:104BE00003901D008B890F0016001B0611D50B6961
:104BF000002B0ED14021FFF7FDFE38603861002800
:104C000005D10C23039A0138136021B0F0BD402375
:104C10007B61002308AC6361203363761033A37695
:104C2000079535002B78002B01D0252B48D1AB1BE5
:104C30000593B5420BD0320039000398FFF76CFFA3
:104C4000013000D1AFE06369059A9B1863612B784E
:104C5000002B00D1A7E0012200235242626004A988
:104C6000543252186E1C2360E360A3601370A36576
:104C7000554B052218003178059300F055FA751C44
:104C800000281FD12268D30604D5532304A95B183A
:104C900020211970130704D5532304A95B182B2175
:104CA000197033782A2B16D0350000210A20E368CA
:104CB0002A786E1C303A092A4ED9002911D117E002
:104CC0000135AFE7059B2268C01A012383401343D7
:104CD0002E002360CCE7079B191D1B680791002B52
:104CE00001DB0B9304E05B42E36002231343236088
:104CF0002B782E2B0AD16B782A2B35D1079B0235C6
:104D00001A1D1B680792002B2BDB09932F4E0322E1
:104D10003000297800F008FA002806D04023801BD4
:104D200083402268013513432360297806222848EE
:104D30006E1C217600F0F8F900283CD0254B002BA2
:104D400025D10722079B07339343083307936369F1
:104D5000049A9B18636164E74343350001219B1863
:104D6000A6E701235B42D0E700230A201A000135A1
:104D7000636029786E1C3039092903D9002BC5D00E
:104D80000992C3E74243350001235218F1E707AA0D
:104D9000009221003A00104B039800E000BF0490FD
:104DA000049B0133D3D1BB890D985B0600D42CE75B
:104DB0000120404229E707AA009221003A00064B51
:104DC000039800F07BF8EAE7105300081653000838
:104DD0001A53000800000000194B0008F7B5160030
:104DE00001938A680B690C000090934200DA13006B
:104DF0002200336043321278002A01D0013333603D
:104E000023689B0602D53368023333602268062389
:104E100015001D401A4227D0230043331B785A1E29
:104E200093412268920630D4220001990098089D8F
:104E30004332A847013025D00622236800251340BD
:104E4000042B05D13368E568ED1AEB43DB171D40F1
:104E5000A3682269934201DD9B1AED180026B54232
:104E600020D1002010E00135E36832689B1AAB4284
:104E7000D2DD2200012301990098089F1932B8471A
:104E80000130F0D101204042FEBD3020E118433115
:104E9000087021005A1C45310978A21843320233A8
:104EA0001170C1E72200012301990098089F1A326E
:104EB000B8470130E6D00136D1E70000F0B58BB03D
:104EC00006920A0043320793059004920A7E0C0072
:104ED000109B782A09D8622A0BD8002A00D1BEE09C
:104EE0007C490391582A00D193E026004236327063
:104EF00022E0100063381528F7D8FBF70DF91600EB
:104F00001F00F6FFF6FFF6FFF6FF1F00F6FFF6FFA5
:104F1000F6FFF6FFA30036008300F6FFF6FFB400AD
:104F2000F6FF3600F6FFF6FF870026001A684236C5
:104F3000111D1960136833700123A2E01868096815
:104F4000021D0D060BD505681A60002D03DA2D230E
:104F5000049A6D4213705F4B0A2703931BE00568A8
:104F60001A604906F1D52DB2EFE70D681968081DE2
:104F700018602E0601D50D6803E06D06FBD50D689F
:104F8000ADB2544B082703936F2A00D00237230099
:104F9000002243331A706368A360002B03DB0421F3
:104FA00022688A432260002D02D1049E002B0CD07F
:104FB000049E28003900FBF73FF9039B013E5B5C30
:104FC00033702B0005009F42F3D9082F09D12368C5
:104FD000DB0706D5626823699A4202DC3023013E72
:104FE0003370049B9B1B2361079B21000093059852
:104FF000069B09AAFFF7F2FE013047D1012040428B
:105000000BB0F0BD202209680A43226078223249A1
:105010000391210045310A701968226820C91006E1
:1050200002D4500600D5ADB21960D30702D52023B3
:10503000134323601027002DA9D120222368934316
:105040002360A4E71A680D68101D49691860136889
:105050002E0601D5196002E06D06FBD519800023EC
:10506000049E2361C0E71A68111D196016680021AB
:105070003000626800F058F8002801D0801B6060A2
:10508000636823610023049A1370ADE7320023693B
:1050900006990598079DA8470130AFD023689B0764
:1050A00015D4099BE0689842AADA1800A8E7220004
:1050B000012306990598079E1932B04701309DD00B
:1050C0000135E368099A9B1AAB42F0DCE9E7002559
:1050D000F7E7C046215300083253000810B5884254
:1050E00002D98B18984203D3002307E08B5C8354CA
:1050F000013AFBD210BDCC5CC45401339A42FAD1C0
:10510000F8E70000002370B5064D040008002B608E
:10511000FBF78AFF431C03D12B68002B00D02360D0
:1051200070BDC04684030020C9B28218904201D1EC
:105130000020704703788B42FBD00130F6E7002354
:1051400010B59A4200D110BDCC5CC4540133F8E7CD
:10515000F7B507000E001400002905D11100FFF774
:1051600049FC05002800FEBD002A03D1FFF7D6FB4D
:105170002500F7E700F01BF80190844203D83500C2
:105180004308A342EED321003800FFF733FC051E8D
:10519000E8D0019B22009C4200D91A00310028006F
:1051A000FFF7CDFF31003800FFF7B8FBDAE70B1F40
:1051B0001B68181F002B01DA0B58C018704700003D
:1051C000F8B5C046F8BC08BC9E467047F8B5C04666
:0851D000F8BC08BC9E467047C4
:1051D80048690D0A00000000646F75626C652074F0
:1051E80061707065640D0A0076616C7665206F7079
:1051F800656E0D0A00000000466C6F6F640D0A00B2
:1052080076616C766520636C6F7365640D0A0000C7
:10521800456E746572696E6720536C6565700D0A1A
:10522800000000004261747465727920566F6C74D6
:105238006167653A2025640D0A000000000000003F
:105248000000000000000000000000000000000056
:105258000000000000000000000000000100000045
:105268000200000003000000040000000600000027
:10527800070000000800000009000000000000000E
:105288000000000000000000000000000100000015
:10529800020000000300000004000000DA350008E6
:1052A8007237000872370008723700081C36000889
:1052B8007237000872370008723700086236000833
:1052C800723700087237000872370008A4360008E1
:1052D800723700087237000872370008EA3600088B
:1052E8007237000872370008723700082C37000838
:1052F800010002000400060008000A000C0010006B
:105308002000400080000001232D302B2000686C15
:105318004C006566674546470030313233343536D0
:105328003738394142434445460030313233343509
:0C53380036373839616263646566000036
:04534400E900000874
:04534800C100000898
:10534C00006CDC0204000000010000000000000002
:10535C004C020020B40200201C03002000000000BE
:10536C000000000000000000000000000000000031
:10537C000000000000000000000000000000000021
:10538C000000000000000000000000000000000011
:0C539C0000000000000000000C000020D9
:04000005080010AD32
:00000001FF
