:020000040800F2
:1000000000300020E10C0008450C0008470C0008F7
:1000100000000000000000000000000000000000E0
:10002000000000000000000000000000490C000873
:1000300000000000000000004B0C00084D0C000800
:10004000310D000800000000310D0008310D0008DE
:10005000310D0008310D0008310D0008550C000865
:1000600000000000310D0008310D0008310D0008BE
:10007000310D0008310D0008310D000800000000AE
:10008000710C00080000000000000000310D0008A5
:1000900000000000810C0008310D0008310D00083F
:1000A00000000000310D000800000000310D0008C4
:1000B000310D0008000000000000000000000000FA
:1000C00010B5064C2378002B07D1054B002B02D02E
:1000D000044800E000BF0123237010BD5C00002035
:1000E0000000000064340008044B10B5002B03D05E
:1000F0000349044800E000BF10BDC04600000000F6
:1001000060000020643400080023C25C0133002A30
:10011000FBD1581E7047000002B4714649084900DF
:10012000095649008E4402BC7047C04602B471466D
:1001300049084900095C49008E4402BC7047C0462A
:1001400003B47146490840004900095E49008E44E5
:1001500003BC7047002243088B4274D303098B42CF
:100160005FD3030A8B4244D3030B8B4228D3030C87
:100170008B420DD3FF22090212BA030C8B4202D329
:100180001212090265D0030B8B4219D300E0090A51
:10019000C30B8B4201D3CB03C01A5241830B8B425A
:1001A00001D38B03C01A5241430B8B4201D34B0343
:1001B000C01A5241030B8B4201D30B03C01A5241A8
:1001C000C30A8B4201D3CB02C01A5241830A8B422D
:1001D00001D38B02C01A5241430A8B4201D34B0216
:1001E000C01A5241030A8B4201D30B02C01A52417A
:1001F000CDD2C3098B4201D3CB01C01A524183092E
:100200008B4201D38B01C01A524143098B4201D367
:100210004B01C01A524103098B4201D30B01C01A92
:100220005241C3088B4201D3CB00C01A524183080C
:100230008B4201D38B00C01A524143088B4201D339
:100240004B00C01A5241411A00D201465241104699
:100250007047FFE701B5002000F006F802BDC04678
:100260000029F7D076E770477047C04610B5040004
:1002700000F0C0FD00F09EFD0B4B186080231B02B8
:100280009C420FD1094C2378012B09D100F092FD3B
:10029000074B084A18601B6812689B1A064A1360CD
:1002A0000023237010BDC046B8000020800000204D
:1002B000B400002084000020B000002010B504002D
:1002C00000F098FD00F076FD094B186080231B02BA
:1002D0009C4207D10122074B1A7000F06BFD064BC0
:1002E000186010BD402CFCD10122044B1A70F8E7B5
:1002F000B800002080000020840000208100002041
:10030000044B10B5834204D100F074FD0122024B6E
:100310001A7010BD24010020BD0000208021A02003
:1003200070B501228900C00501F00CFA134D0021BF
:10033000280002F0BFF8E124322000F041FDE40083
:100340002B681E205C6300F03BFD0D4B323C9C4251
:10035000F6D1322000F034FD0021280002F0FCF834
:10036000322000F02DFD8021A02000228900C00550
:1003700001F0E8F90122034B1A7070BD70010020F2
:1003800052030000BC0000208021A02070B5012293
:100390008900C00501F0D6F9134D0021280002F0B4
:1003A00089F8E124322000F00BFDA4002B681E2008
:1003B0005C6300F005FD0D4B32349C42F6D13220D7
:1003C00000F0FEFC0021280002F0C6F8322000F008
:1003D000F7FC8021A02000228900C00501F0B2F9BD
:1003E0000022034B1A7070BD700100203A07000014
:1003F000BC000020F7B58027164E3F0201223900CD
:10040000300001F09FF9144C200001F009F8FA21A6
:100410002000890000F00AFE200000F065FE6B4617
:1004200080B2D88005209D1D00F0CAFC200001F09C
:100430005DF839003000002201F084F9002329889A
:10044000064889B288425B41054A2888137080B209
:10045000FEBDC04600040050C0000020850B000017
:100460007800002070B580250C4C6D002000012222
:10047000802101F067F929000122200001F062F9D2
:10048000642000F09DFC20000022802101F05AF938
:1004900029000022200001F055F970BD0004005031
:1004A00070B580250C4CAD0020000122802101F0A8
:1004B00049F929000122200001F044F9C82000F088
:1004C0007FFC29002000002201F03CF9002280215D
:1004D000200001F037F970BD0004005070B580268F
:1004E00080250E4C76003100AD002000012201F085
:1004F00029F929000122200001F024F9FA208000C6
:1005000000F05EFC31002000002201F01BF9290000
:100510000022200001F016F970BDC0460004005012
:1005200010B50400FFF7F0FD0123210082B25B4209
:10053000074802F0E6F90A2000F042FC2000FFF72D
:10054000E3FD00210200200002F0FEFA10BDC046CB
:10055000BC0100208021A02010B50902C00501F0D7
:10056000EBF8012816D140210B4801F0E5F80128ED
:1005700010D10A4B1B78002B01D1FFF7CFFE084C9E
:100580000849200002F014FB2000FFF7C9FF0022F9
:10059000054B1A7010BDC04600040050BC0000207E
:1005A000880000207C3400088100002070B5FFF72F
:1005B00021FF084B05001B78002B01D0FFF770FFCF
:1005C000054C2A000549200002F09EFA2000FFF7A2
:1005D000A7FF70BD78000020880000208934000843
:1005E000F7B54A4C4A49200002F0E2FA2000FFF732
:1005F00097FF4021474801F09FF8474D012870D1EF
:10060000002363302B7000F0DBFBFFF787FEFA203E
:10061000400000F0D5FBFFF761FF00F0CBFBFA22B2
:100620003E4E07003368D200934262D32B78DAB291
:100630000192002B5DD1FFF715FFFFF7A5FEFFF735
:100640004DFFFA20400000F0BBFBFFF70BFFFFF768
:1006500065FE019B33602B78002B1CD0304E314A55
:100660003368FB1A934209D92F49200002F0A0FAFF
:100670002000FFF755FFFFF731FF37602B4B1B784A
:10068000012B08D1FFF780FE2000294902F090FAE3
:100690002000FFF745FF274E3378012B05D10023BB
:1006A0003370FFF7DFFEFFF781FF234B234A1B6800
:1006B000FB1A9342B1D92B78DFB2002BADD1204980
:1006C000200002F075FA2000FFF72AFF1D4837705E
:1006D00001F024FC00F086FB0121380001F04CF809
:1006E0009BE7012364202B7000F06AFBFFF74CFEB0
:1006F0008DE7FA22336852009342ACD83368312B2D
:10070000A9D9FFF727FF0023A4E7C04688000020EF
:100710009F3400080004005081000020B000002039
:100720007C00002088130000AD340008BC000020CD
:10073000B5340008BD000020B80000208713000079
:10074000C43400082401002000B58DB01822002117
:1007500006A802F0F9F900211422684602F0F4F923
:1007600002230593FE33089380235B010993402302
:1007700005A80A9301F010F8011E01D072B6FEE739
:10078000072301900290039004906846009301F0C3
:100790005DF9002801D072B6FEE70DB000BD000083
:1007A000F0B5042701248FB000F0ECFAFFF7CCFF7E
:1007B0001422002107A802F0C7F902218825A020F1
:1007C0009A4B9B4E5A6BAD003A435A635A6BC00525
:1007D0003A400192019A5A6B22435A635A6B224063
:1007E0000292029A5A6B0A435A635B6B00220B40D7
:1007F00003932900039B00F0A5FF002231008D48E0
:1008000000F0A0FF80239B0107938B4B8B4807A927
:100810000893099400F0D8FEA0200795002507A9A9
:10082000C005089409950A9500F0CEFE814807A9F5
:100830000796089409950A9500F0C6FE8023A0202B
:100840001B0207937E4B07A9C0050893099500F08A
:10085000BBFE40230C260793774B764807A90893E5
:10086000099400F0B1FE2A002900072000F05CFE88
:10087000072000F083FE3200290004A802F064F98A
:100880001C22290007A802F05FF96E4C6E4B200075
:1008900023606E4B6660E3608023A5602561A361E1
:1008A00001F080FCA84201D072B6FEE704900690E9
:1008B00004A9200001F054FE021E01D072B6FEE72A
:1008C0006023089009900B9007A92000079301F07E
:1008D000CFFC051E01D072B6FEE7200000F05CF9E7
:1008E0003200290007A802F02FF9594C594B20007B
:1008F0002360C0231B06636080239B0323610823BE
:10090000E361631CDD7723002C331D7007236363D1
:10091000A363230025833C33A560E5606761A5766A
:100920006562A56225631D70E56400F06FFA00281A
:1009300001D072B6FEE7484B0890099007A9200045
:10094000079300F0D5FB002801D072B6FEE7200027
:1009500007A9089700F0CCFB002801D072B6FEE78B
:100960000823200007A9089300F0C2FB002801D04B
:1009700072B6FEE7200007A9089600F0B9FB002830
:1009800001D072B6FEE71023200007A9089300F0FB
:10099000AFFB002801D072B6FEE71423200007A9A0
:1009A000089300F0A5FB002801D072B6FEE71823DB
:1009B000200007A9089300F09BFB002801D072B625
:1009C000FEE71C23200007A9089300F091FB031EFB
:1009D00001D072B6FEE72148214A83600260E1221D
:1009E000520242600C22C36003618361C3610362EF
:1009F00043628362426102F053F8031E01D072B673
:100A0000FEE71848184A836003614361802302604F
:100A1000164A83614260164AC26001F099FB0028C1
:100A200001D072B6FEE7FFF7DBFDFEE700100240E3
:100A300080830000000400500000211000080050D6
:100A40000000311070010020000400403408000054
:100A5000C00000200024014000100030BC01002034
:100A6000004400402401002000440140EF2A00001F
:100A7000DDFF000072B6FEE701210A4B82B01A6C5E
:100A80000A431A641A6C0A4080210092009ADA6BB9
:100A900049050A43DA63DB6B0B400193019B02B00B
:100AA0007047C0460010024010B504008EB01422FA
:100AB000002102A802F048F81C22002107A802F039
:100AC00043F8174B22689A4227D1802307A8DB01FD
:100AD000079301F081F8002801D0FFF7CBFF8021B8
:100AE000104B49031A6CA0200A431A641A6CC00503
:100AF0000A4001210092009A5A6B0A435A635B6BC9
:100B00000B400193019B80235B010293032303931A
:100B1000002302A9049300F057FD0EB010BDC0469B
:100B2000002401400010024007B50B4B02689A42B6
:100B300010D10221094B1020DA6B0A43DA6300223C
:100B4000DB6B0B4001931100019B00F0EDFC1020CA
:100B500000F014FD07BDC046000400400010024034
:100B600007B50B4B02689A4211D18021094B8902CB
:100B70001A6C15200A431A6400221B6C0B40019367
:100B80001100019B00F0D0FC152000F0F7FC07BD20
:100B9000004401400010024010B5040086B0142249
:100BA000002101A801F0D0FF0C4B22689A4212D11B
:100BB00004210B4B0B485A6B0A435A635B6B0B4087
:100BC0000093009B402301933E3B029301A9013B0C
:100BD000059300F0F9FC06B010BDC04600040040CB
:100BE000001002400008005010B5040088B0142224
:100BF000002103A801F0A8FF104B22689A421BD1E4
:100C000080210F4B8902DA6BA0200A43DA63DA6B8A
:100C1000C0050A400192019A0122596B11435963A0
:100C20005B6B03A913400293029B0C2303930A3BC3
:100C30000493079200F0C8FC08B010BD00440040C7
:100C400000100240FEE7FEE77047704710B500F065
:100C5000A5F810BD10B5402000F07AFD802080017D
:100C600000F076FD8020000200F072FD10BD000053
:100C700010B5024801F082F910BDC0467001002095
:100C800010B5024801F07AF910BDC04624010020D9
:100C90000B490C4A0300521A0B4910B5086800288A
:100CA00001D10A4808600868C318934206D901F0C8
:100CB00053FF0C2303600120404210BD0B60FCE792
:100CC000000400000030002050020020A00300209B
:100CD0008022024B12059A607047C04600ED00E08A
:100CE0000D488546FFF7F4FF002103E00B4B5B58EE
:100CF000435004310A480B4B42189A42F6D30A4A31
:100D000002E0002313600432084B9A42F9D301F049
:100D100029FFFFF745FDFEE7003000209035000871
:100D2000000000205C0000205C000020A0030020E8
:100D3000FEE7000070B5104B05001978002901D1BD
:100D4000012070BDFA208000FFF704FA0B4C01006F
:100D50002068FFF7FFF900F01DFC041EF0D1032D01
:100D6000EED8020001202900404200F0DDFB044BD8
:100D700020001D60E5E7C0460400002000000020C0
:100D80000800002010B50320FFF7D4FF041E03D194
:100D9000FFF772FE200010BD0124FBE7034A044B5D
:100DA00011681B785B1813607047C046540200201E
:100DB00004000020014B18687047C0465402002010
:100DC00070B50400FFF7F6FF0500631C02D0044B6A
:100DD0001B78E418FFF7EEFF401BA042FAD370BD6A
:100DE000040000200221024A13688B4313607047FD
:100DF00010E000E00223024A11680B4313607047C1
:100E000010E000E080684007C00F70470023F0B595
:100E100085B0040001260393984200D1B4E0856DAB
:100E20009D4205D1FFF740FE23005433E5651D7058
:100E3000802325685B05AA681A4200D1A7E0AB6849
:100E40000026DB0007D410230126A26D1343A365FF
:100E5000E36D3343E3652800FFF7D4FF1022A36D51
:100E60001340034300D0CCE0A26D684B1A40063318
:100E7000FF331343A3652269AB680192DB0762D499
:100E8000276BE1687B1E9F41A368A27E0B43217EF6
:100E90003F0389030B43617EC9030B4351030B439B
:100EA0009C46019B002B00DB85E05900490823008C
:100EB00060462C331B785B0003433B430B43611CB0
:100EC000C97F012905D1002A00D077E08022520293
:100ED0001343626A002A05D0E02149000A40A16A52
:100EE0000A431343EA684A490A401343EB6023006C
:100EF00062683C33E16C1B78970FBF079C4639430F
:100F0000012B08D1236C606C03430B43A16C0B4392
:100F100061463B4319432B693E4F3B400B438021C5
:100F20002B6153005B08C9058B420CD080231B0644
:100F30009A4208D03849394F0B683B40F027BF032D
:100F40003A4013430B60072170276B69626B8B4338
:100F500013436B616969A36BB9431B010B436B615D
:100F6000019B002B32D1A96A103B0B43AB620721D6
:100F70006B690B409A4239D10023E365A26D0333BC
:100F80009A43023B1343A365300005B0F0BDAA6845
:100F900023490A401343AB60224B23491868FFF7EB
:100FA000D9F840000390039B002B00D147E7039B37
:100FB000013B0393F7E78021890378E72022A76D9F
:100FC0003A43A265E26D1143E16582E7802301990E
:100FD0009B039942CBD11C21AB6AE369013B9B0087
:100FE0000B402C3999400B00216EBEE712230126DD
:100FF000A26D9A43023B1343A365E36D3343E3655C
:10100000C2E7A36D01261A43A265BDE7FDFEFFFFFF
:101010000102DEFF02FCFF1F08270140FFFFC3FFA4
:10102000E8FFFF6F00000020400D0300F7B547699F
:1010300004000E00082F0AD003680120DB68042793
:10104000034204D02023A26D1343A365FEBDFFF726
:10105000B1FE019025682B681F4225D08023A26D28
:101060009B001343A365C023EA681B011A4215D1F4
:10107000A37E002B12D12B681B070FD52800FFF78A
:10108000C1FE002823D10C226B6893436B60A26DD4
:10109000144B1A400433FF331343A365207E00280A
:1010A0001ED10C232B60D1E7731CD4D0FFF782FE36
:1010B000019BC01AB04201D8002ECBD10423A26DEF
:1010C000543413436360002303202370BEE72023BE
:1010D000A26D1343A3650123E26D1343E365DDE7CE
:1010E0000020B3E7FEFEFFFF0368186C70470000A6
:1010F0000023F0B585B003930300009154331A78B0
:1011000005000220012A00D1CCE001222F691A70CB
:101110002E683000FFF776FE002800D0E9E0009B43
:1011200004225B6880219C4697436246009B090627
:101130001B68022A00D1B7E05A02520A8F4210D12E
:10114000B16A0A43B262009A7069926819026C4CE3
:101150000A402240884302437261002B6CDB00206E
:101160009DE01F2167460F401039B940CC430194E0
:101170002C6E8C432100002A12D1980E1F32104091
:10118000B840624608439208E969013228668A42FB
:10119000D9D8B16A01989A00120FBA400140D0E73D
:1011A00001221342ECD1921801201342E8D1100021
:1011B00002321342E4D101301A07E1D40130DA06D9
:1011C000DED401309A06DBD401305A06D8D401307F
:1011D0001A06D5D40130DA05D2D401309A05CFD41D
:1011E00001305A05CCD401301A05C9D40130DA04D3
:1011F000C6D401309A04C3D401305A04C0D401309B
:101200001A04BDD40130DA03BAD401309A03B7D43A
:1012100001305A03B4D401301A03B1D40130DA02D8
:10122000AED401309A02ABD480221800D203104011
:101230001342A5D01620A3E7C024324A32481168D1
:1012400024040C40834219D180200004014286D13D
:1012500013682E490B40234318432D4B1060186828
:101260002C49FEF777FF0C23434301330393039B81
:10127000002B00D173E7039B013BF7E7264883422D
:1012800000D06CE780230800DB031840194200D02F
:1012900065E711681D4E314021430B431360002365
:1012A00054352B7005B0F0BD8F4204D1B26A59029B
:1012B000490A8A43B262002B00DB50E71149124809
:1012C0000A68834208D18023DB03086813400F4A71
:1012D000024013430B6042E70F48834200D03EE7D1
:1012E000802000040B680240084803401A430A604B
:1012F00035E72023AA6D01201343AB65CFE7C04635
:1013000000FFFF7F08270140000200A4FFFF3FFF0E
:1013100000000020400D0300000400A870B505681F
:1013200004002800FFF76EFD002801D1002070BDE9
:10133000AB689B0705D4AA680D4B1A4010231343D2
:10134000AB60FFF737FD0426050023689B68334236
:10135000ECD0FFF72FFD401B0228F6D91023012007
:10136000A26D1343A365E36D0343E365DFE7C04666
:10137000E8FFFF7F0023F7B5040001930368012015
:101380009A68024201D00020FEBD99681F4A1142AE
:1013900007D01023A26D1343A365E36D0343E365F8
:1013A000F2E79A681A4D2A4010439860194B1B685F
:1013B0001B021DD4637E012BE5D0FFF7FBFC012649
:1013C0000700226813683342DDD19368334203D1AA
:1013D00093682B4033439360FFF7ECFCC01B02285B
:1013E000EFD91023A26D01201343A365E36DD5E768
:1013F000094B0A491868FEF7ADFE01300190019BC8
:10140000002BD7D0019B013B0193F8E71700008028
:10141000E8FFFF7F0827014000000020400D030087
:1014200070B504000068FFF7EDFC06000220002EF6
:101430001DD1250054352B78012B18D00123200015
:101440002B70FFF797FF002812D1A26D094B1A40AD
:1014500080235B0013431C22A3652368E0651A60A8
:1014600028709968044A114004220A439A6070BDAA
:101470002E70FCE7FEF0FFFFE8FFFF7F036870B50A
:101480000400012099689A68024201D1002070BDD1
:1014900002221142FAD105219D680D40012D1BD178
:1014A0009968114801400A439A6003221A60FFF7C5
:1014B00081FC060023689B682B42E7D0FFF77AFC8B
:1014C000801B0228F6D91023A26D01201343A365C7
:1014D000E36D2B43E365DAE71023A26D1343A365A5
:1014E000E36D0343E365D2E7E8FFFF7F70B50600D5
:1014F0005436337804000220012B12D0012520003D
:101500003570FFF70BFF002809D12000FFF7B6FF69
:10151000002804D1A36D034A13401D43A565002391
:10152000337070BDFEFEFFFF30B5FF2503242A0097
:101530000440E400A24089012940D243A140C3B243
:1015400000280ADBC0240B4B80088000C018A400D0
:10155000035913400B43035130BD0F200340083B98
:1015600005489B089B001B18D86902400A43DA61B2
:10157000F2E7C04600E100E000ED00E0002805DBF6
:101580001F2318401E3B8340014A13607047C0462A
:1015900000E100E08022431E5204012093420DD25C
:1015A000C021074A07485360036A09061B021B0A49
:1015B0000B43036200200723906013607047C0460E
:1015C00010E000E000ED00E0544AF0B58218541E2F
:1015D000A241002387B0053202910592029A126857
:1015E0001400DC4001D107B0F0BD01249C400394FD
:1015F0000399144001940A4200D18CE0029A10240D
:1016000052681500A54329000495022D12D1072622
:101610000D310C001E40B6008C46B440DD08AD0014
:1016200045192F6A0299A7430C6961460C40B440E2
:101630003C432C62032427005D00AF401440390076
:10164000AC400668FF438E4334430460049C013C75
:10165000012C0DD802998668CC683E40AC403443DA
:10166000846014099C40466803998E433443446067
:10167000032A50D00299C6688C683E40AC4034437F
:10168000C460D40047D503271E003E40BE400F244F
:10169000B44023499D08AD006D18296EA143039104
:1016A000A0210024C90588420CD01E49013488427B
:1016B00008D01D490134884204D01C493C008842AE
:1016C00000D0059CB44003990C4301992C660E0090
:1016D000174CCD43E76F3E43D10301D43E002E406B
:1016E000E667144E019FF46F2743910301D42C4009
:1016F00027000B4CF7672768019E3E43D10201D4B7
:101700003E002E4026606668019F3743920201D456
:101710002E4037006760013360E7C04600ECFFAF42
:10172000001802400004005000080050000C005057
:10173000041802400818024000690840431E9841FE
:10174000C0B27047002A01D0816170478162FCE716
:1017500070B5084D0400EB68184202D0E860FEF74F
:1017600085FD2B69234203D020002C61FEF7A6FDE6
:1017700070BDC046001802400420064A1369834326
:101780001361012901D130BF704740BF20BF20BF86
:10179000FAE7C04600ED00E0F8B5051E01D10120D2
:1017A000F8BD0368DB070DD42B689B074FD42B686B
:1017B0001B0700D5A4E004222B68134200D0CFE021
:1017C0000020EDE73821854C4368A2680A40082ACA
:1017D00002D1002BE8D1E2E780225202934211D1DC
:1017E000226813432360FFF7E5FA80270600BF0253
:1017F00023683B42D8D1FFF7DDFA801B6428F7D974
:101800000320CDE7A021C9028B4208D180232168A3
:10181000DB020B43236023681A432260E3E722685C
:101820006F490A40226022686E490A402260002BFC
:10183000D9D1FFF7BFFA80270600BF0223683B42D9
:10184000B2D0FFF7B7FA801B6428F7D9D8E738225F
:10185000624CEB68A16811421CD1002B9FD06268DA
:101860006B6961491B020A401343636023685F4A46
:101870005F4913402A691343236023685D4A9B0430
:101880005B0FDA405C4B0A601868FFF753FA0028D8
:101890008DD084E7002B20D02368544A8027134042
:1018A0002A69FF0013432360802322685B001343EF
:1018B0002360FFF77FFA060023683B4207D0626887
:1018C0006B6949491B020A40134363606FE7FFF7E6
:1018D00071FA801B0228EFD992E72368474A8027D4
:1018E00013402360FFF766FA0600FF0023683B42BF
:1018F00000D15CE7FFF75EFA801B0228F6D97FE78C
:101900003821364CAA69A3680B40182B03D1002A52
:1019100000D050E743E70123002A10D0226E0227AF
:1019200013432366FFF746FA0600236E3B4200D0BE
:1019300041E7FFF73FFA801B0228F6D960E7226EE5
:1019400002279A432266FFF735FA0600236E3B42D0
:1019500000D130E7FFF72EFA801B0228F6D94FE7B7
:1019600038211E4CA868A3680B40202B03D14342AA
:101970005841C0B214E7E36D012810D10343E36579
:10198000FFF718FA02260500E36D334200D017E78F
:10199000FFF710FA1A4B401B9842F5D930E705289B
:1019A00005D11343E3650123E26D1343E7E701210A
:1019B0008B43E365E36D9343E3650028E0D1FFF7D4
:1019C000F9F902260500E36D334200D1F8E6FFF78E
:1019D000F1F90B4B401B9842F5D911E7001002407A
:1019E000FFFFFEFFFFFFFBFFFF80FFFFFFC7FFFFC3
:1019F00000000020006CDC0208000020FFFEFFFF5A
:101A00008813000038220F4B9968114205D11B68DA
:101A10000D489B045B0FD840704799681140082916
:101A20000BD099681140202909D09B6800201340F1
:101A3000182BF1D1FA20C001EEE70348ECE7802033
:101A40000002E9E700100240006CDC02F7B5040078
:101A50000D00002801D10120FEBD07274B4E336841
:101A60003B408B422AD3226893073BD4D2074AD407
:101A7000072733683B40AB420AD93368BB432B434B
:101A80003360FFF797F9019033683B40AB426DD16B
:101A900023683F4D5B0771D4FFF7B4FFAB683D4946
:101AA0001B051B0F9B005B581F210B40D8403A4A77
:101AB0003A4B10601868FFF73DF9CDE73368BB4338
:101AC0000B433360FFF776F9019033683B40AB423C
:101AD000C9D0FFF76FF9019BC01A314B9842F4D976
:101AE0000320B9E72A49530706D588682D4B1840CB
:101AF000B0231B0103438B608B682B480340E068D5
:101B000003438B60B2E71C22214F3B689343A268DA
:101B100013433B606268012A19D13B689B039AD545
:101B20000721BB688B431343BB60FFF743F9019068
:101B30003823BA681A406368DB009A4298D0FFF7EE
:101B400039F9019BC01A164B9842F1D9C8E7002A0F
:101B500003D13B685B05E3D47DE70223032A03D16D
:101B6000396E1942DCD176E7F96DFAE7FFF722F911
:101B7000019BC01A0A4B984286D9B1E7AB680B4A61
:101B8000134022691343AB6086E7C0460020024041
:101B900000100240D8340008000000200800002097
:101BA00088130000FF84FFFFFFF0FFFFFF8FFFFFA0
:101BB000064B07499B68074A5B045B0F9B005B5819
:101BC0001F2110680B40D8407047C04600100240EB
:101BD0001835000800000020F0B50368050085B046
:101BE00000209B0323D58022394C5205E36B06006D
:101BF000134207D1E36B01361343E363E36B1340F6
:101C00000393039BE26DC02310009B00A969314F31
:101C100018401A423BD10020E36DAA693B401343B0
:101C2000E365012E03D1E36B2B4A1340E3632A687B
:101C3000D30706D5032426494B6DA343AC68234341
:101C40004B65530606D52249244C4B6D2340EC6866
:101C500023434B65530406D51D496C694B6D9B00AE
:101C60009B0823434B65130506D519491C4C4B6D46
:101C700023402C6923434B65002A06DAE021144AED
:101C800013688B4369680B43136005B0F0BD88424D
:101C9000C1D08022E36DE06D190052020243E2657B
:101CA000E26D104839400240E265E165DB07B2D5DC
:101CB000FFF780F801900222E36D1342ABD1FFF7EA
:101CC00079F8019BC01A084B9842F4D90320A8E781
:101CD00000100240FFFCFFFFFFFFFFEFFFCFFFFF01
:101CE000FF3FFFFFFFFFFEFF8813000070B50124D8
:101CF000036A026AA24302624468164A8569154073
:101D00000A681543022293438A681343124A904299
:101D100005D0124EB04202D0114EB04213D1082667
:101D2000B343CE6833430426B343904205D00B4AF5
:101D3000904202D00A4A904205D10A4A8E69224056
:101D40004C69344314434A684460856142630362CA
:101D500070BDC0468CFFFEFF002C014000440140D6
:101D600000480140FFFCFFFF70B5174A056A036A8F
:101D7000134003624268154BC4691C400B681C4346
:101D8000134B1D408B681B022B43124DA8420ED1F2
:101D9000114D1D40CB681B022B43104D2B40104DA5
:101DA0004E6915408A69324312012A4305E00D4D00
:101DB000A842F4D00C4DA842F1D042604A68C461F8
:101DC000C263036270BDC046FFFEFFFF8CFFFEFFD3
:101DD000FFFDFFFF002C0140FFF7FFFFFFFBFFFFB0
:101DE000FFCFFFFF004401400048014030B5124AD8
:101DF000046A036A114D134003624368C2692A40B2
:101E00000D682D0215430E4A14408A6812032243BE
:101E10000C4CA04205D00C4CA04202D00B4CA0426E
:101E200004D10B4C1C404B699B01234343604B681E
:101E3000C5610364026230BDFFEFFFFFFF8CFFFE50
:101E4000FFDFFFFF002C014000440140004801403B
:101E5000FFBFFFFF70B5066A104C036A104A2340AB
:101E600003624368456D15400A6815430D4A1640E4
:101E70008A68120432430C4EB04205D00B4EB04279
:101E800002D00B4EB04203D11C404B691B022343CE
:101E900043604B6845658365026270BDFFFFFEFFCE
:101EA0008FFFFEFFFFFFFDFF002C014000440140BB
:101EB0000048014030B5124A046A036A114D1340CC
:101EC00003624368426D2A400D682D0215430E4A95
:101ED00014408A68120522430C4CA04205D00C4CD9
:101EE000A04202D00B4CA04204D10B4C1C404B69C9
:101EF0009B02234343604B684565C365026230BD66
:101F0000FFFFEFFFFF8FFFFEFFFFDFFF002C014011
:101F10000044014000480140FFFFFBFF02000300B6
:101F200001203D321178814218D1022111701B68C5
:101F3000DA680243DA600C4A934202D00B4A9342B9
:101F40000DD19A680A4900200A40062A06D00739AE
:101F50008A4203D0012219680A431A6070471A683E
:101F600002431A600020F9E7002C01400004004001
:101F700007000100704770477047704702220368EE
:101F800070B5DD681E69040016420DD015420BD0F5
:101F9000053A1A61043202779B699B0700D17CE005
:101FA000FFF7E9FF0023237704231E4212D01D42CE
:101FB00010D00522236852421A61073222779A69AB
:101FC000C0239B0020001A4200D16CE0FFF7D3FF32
:101FD0000023237708231E420FD01D420DD0092273
:101FE000236852421A610D322277DB6920009B0779
:101FF0005FD0FFF7C0FF0023237710231E4211D0CC
:102000001D420FD01122236852421A6119322277E1
:10201000DA69C0239B0020001A4250D0FFF7ABFFC3
:102020000023237701231E4208D01D4206D002223E
:102030002368524220001A61FEF762F980231E4293
:1020400008D01D4206D081222368524220001A6126
:1020500000F0B7FAF30507D52B0605D523681B4A10
:1020600020001A6100F0AEFA40231E4208D01D4243
:1020700006D041222368524220001A61FFF77DFFFB
:1020800020231E4208D01D4206D02122236852423E
:1020900020001A6100F094FA70BDFFF76BFF20007A
:1020A000FFF76AFF7EE7FFF765FF2000FFF764FF99
:1020B0008EE7FFF75FFF2000FFF75EFF9BE7FFF76C
:1020C00059FF2000FFF758FFAAE7C046FFFEFFFFB9
:1020D000194A10B50368904202D0184CA04208D1AA
:1020E0007024A3434C68234390420BD0134CA0426E
:1020F00008D0134CA04205D0124CA04202D0124C82
:10210000A04203D1114C1C40CB6823438024A3433D
:102110004C69234303608B68C3620B6883629042FF
:1021200005D0084B984202D0074B984201D10B6969
:1021300003630123436110BD002C014000040040F3
:10214000002000400044014000480140FFFCFFFF28
:1021500070B504000120002C23D025003D352B78DC
:10216000DAB2002B05D123003C3320001A70FEF7B1
:10217000F7FC02232B702068211DFFF7A9FF220026
:10218000012300204832137047340A3A1370537009
:102190009370D370137153719371D3711372237051
:1021A0002B7070BD70B504000120002C23D02500D9
:1021B0003D352B78DAB2002B05D123003C332000CB
:1021C0001A70FEF7B1FC02232B702068211DFFF767
:1021D0007FFF2200012300204832137047340A3A5F
:1021E000137053709370D370137153719371D371D3
:1021F000137223702B7070BD102270B5056A036ACC
:10220000164C934303624368826922400C6824029F
:102210001443202295438A6812012A43104DA84294
:102220000FD18025AA431600CA68403D12013243EF
:10223000AA430C4D4E691D408B6933439B002B43D1
:1022400005E0094DA842F4D0084DA842F1D0436002
:102250004B6884618363026270BDC046FF8CFFFEE1
:10226000002C0140FFF3FFFF004401400048014003
:10227000F8B506003C361500327803000C00022049
:10228000012A0CD0013830700C2D53D008D8042D01
:102290002DD0082D3ED0002D17D000233370F8BD6F
:1022A000102D5AD0142DF8D11D682800FFF702FE1A
:1022B00080236A6D1B0113436B656B6D2F4A1340BE
:1022C0006B6523696A6D1B0255E01F683800FFF7D4
:1022D0000DFD0823BA6913430422BB61BB69934314
:1022E000BB61BB6922691343BB610020D5E71D6850
:1022F0002800FFF781FF8023AA691B011343AB610C
:10230000AB691E4A1340AB612369AA691B021343E0
:10231000AB61EAE71F683800FFF726FD0422FB697E
:102320001D43FD61FB699343FB61FB692269134314
:10233000FB61DAE71D682800FFF758FD8023EA6992
:102340001B011343EB61EB690C4A1340EB612369FA
:10235000EA691B021343EB61C7E71D682800FFF71A
:1023600079FD08236A6D134304226B656B6D9343FB
:102370006B656B6D226913436B65B6E7FFFBFFFF6F
:102380001F2310B5012419408C408A40036AA343DF
:102390000362036A1A43026210BD0000020010B516
:1023A00008292AD014D8002919D0042922D01300D2
:1023B000012043331B7883421BD1082931D80223E3
:1023C000002936D0042956D013000220433323E0DD
:1023D0000C2923D01029EAD1030042330FE0030077
:1023E0003E331B78013B581E8341DBB20120002B9A
:1023F000E5D010BD03003F33F3E7030040331B7803
:10240000013B581E8341DBB20120002BF1D108298A
:10241000D3D113000220403318700DE00300413384
:10242000EDE702230C2929D01029CDD1100042302C
:1024300001E010003E300370146801222000FFF715
:102440009FFF174A94421CD0164B9C4219D0164B42
:102450009C4216D0154B9C421BD1A368144A002005
:102460001340062BC5D0073A9342C2D001232268FD
:1024700013432360BDE710003F30DCE7100041301C
:10248000D9E78023616C1B020B4363649442E1D162
:10249000E3E701232268002013432360A9E7C04635
:1024A000002C01400044014000480140000400406D
:1024B0000700010010B5FFF771FF10BD70B505688A
:1024C0000022040028000E00FFF75AFF1C4B1D4A93
:1024D0009D4205D01C4B9D4202D01C4B9D420AD10F
:1024E0002B6A134207D1296A194B194203D16B6C2D
:1024F00018490B406B642B6A134207D12A6A144BAC
:102500001A4203D101222B6893432B600123002E32
:1025100003D13E340020237070BD0C2E0ED005D8A0
:10252000042E07D0082E07D04334F3E7102EFBD13A
:102530004234EFE73F34EDE74034EBE74134E9E77D
:10254000002C0140111100000044014000480140EE
:1025500044040000FF7FFFFF10B5FFF7AFFF10BD81
:10256000F0B5040002223C34257803001000012D50
:102570001FD01D003D352A701A680E4E53689068B2
:10258000B24203D10C4F3B404F683B437027BB43E3
:102590000F683B435360B24202D0084B9A4204D1C9
:1025A000802398438B6818439060012300202B7090
:1025B0002070F0BD002C0140FFFF0FFF0004004021
:1025C000704770477047000030B5EFF31084012268
:1025D00082F310880168134D0B682B400B6084F365
:1025E0001088EFF3108182F3108802680E4C936814
:1025F0002340936081F31088C36E012B0AD1EFF35F
:10260000108183F31088102402681368A3431360B9
:1026100081F31088030020228C331A600023C366E4
:10262000436730BDDFFEFFFFFEFFFFEF70B5040024
:102630002569A168026829436569C369294310684F
:102640004E4D194328400143116051684C48256A9A
:102650000140E06801435160A16990682943494DF8
:10266000284001430F209160D16A8143606A014391
:10267000D16245498A4216D1032044494A6D02403D
:10268000013A022A12D84248805C80221202934208
:102690001BD0082800D96FE0FDF748FD486E4D6E4D
:1026A000686E6E6E6B003B498A4265D180221202D1
:1026B00093423BD1FFF77CFA031E17D10020364B23
:1026C000A36600236367A36770BD082854D8FDF78D
:1026D00023FDF15305532A5353530D0009682F4826
:1026E0000906490F0131FDF735FD0300616A2C4AE7
:1026F0004900895A1800FDF72DFD656840006B08F8
:10270000C0182900FDF726FD0200264B103A9A4218
:1027100032D80F23020000079A4393B2400F226879
:102720000343D360CAE7FFF76DF9C5E7FFF740FA47
:102730000028C3D006E0096818480906490F01318E
:10274000FDF708FD626A164B5200D15AFDF702FDF3
:1027500065686B08C0182900FDF7FCFC0200114BEE
:10276000103A9A4208D82368D860A7E7FFF74AF9D9
:10277000DEE780200002E5E70120A0E7F369FFCF54
:10278000FFCFFFFFFFF4FF110038014000100240AF
:10279000383500080044004001000100006CDC02F4
:1027A0003C350008EFFF0000836A30B51A0706D5F4
:1027B0000168284C4A682240846B22434A60DA0749
:1027C00006D50168244C4A682240C46A22434A6004
:1027D0009A0706D50168214C4A682240046B2243BF
:1027E0004A605A0706D501681D4C4A682240446B6E
:1027F00022434A60DA0606D501681A4C8A682240EC
:10280000C46B22438A609A0606D50168164C8A6812
:102810002240046C22438A605A0610D50168134D89
:102820004A68446C2A4022434A6080225203944200
:1028300005D14A680E4C2240846C22434A601B0634
:1028400006D502680B4953680B40C16C0B435360BB
:1028500030BDC046FF7FFFFFFFFFFDFFFFFFFEFF14
:10286000FFFFFBFFFFEFFFFFFFDFFFFFFFFFEFFFBC
:10287000FFFF9FFFFFFFF7FFF7B504000D001700F4
:10288000082600932268D3692B405B1B59424B41B9
:10289000BB4201D0002021E0089B0133F3D0FEF7BA
:1028A00089FA009BC01A089B984228D8002B26D092
:1028B000042123681A680A42E4D0DA691100314021
:1028C000019132420BD020001E62FFF77DFE2300F3
:1028D00090331E600023012084342370FEBD8022CB
:1028E000D96912011142CDD01A622000FFF76CFEA7
:1028F0002300202290331A60019B8434237003202C
:10290000ECE7F0B51600020085B088320393136837
:1029100004000D000220202B3AD10138002937D0C5
:10292000002E35D08023A1685B01994204D1236930
:10293000002B01D105422BD12300002190331960D7
:1029400021231360FEF736FA230054331E8002332E
:102950001E8002938023A268070000265B019A4232
:1029600004D12369B34201D12E001D002300563348
:102970001B889AB2002B0DD1039B200000934021AD
:102980003B00FFF779FF20238834236000280ED115
:1029900005B0F0BD039B0022009380213B00200086
:1029A000FFF76AFF002804D0202388342360032027
:1029B000EEE72268002D0BD133880236DB05DB0DF4
:1029C0009362029B029A1B88013B9BB21380CDE766
:1029D0002B7801359362F4E7030073B500260400F9
:1029E00090331E60FEF7E6F9236805001B681B079D
:1029F0001FD58021284B320000938903030020005B
:102A0000FFF73AFFB04214D0EFF31081012383F3B4
:102A100010888020226813688343136081F3108834
:102A20002300202288331A6003200023843423707B
:102A300076BD260023688C361B685B0723D5802172
:102A4000154B0022009320002B00C903FFF714FF51
:102A5000002818D0EFF31080012282F3108821683B
:102A60000E4D0B682B400B6080F31088EFF3108045
:102A700082F3108821688B6893438B6080F3108801
:102A800020233360D0E723002022002088331A60FF
:102A90003260E0662067C8E7FFFFFF01DFFEFFFF4F
:102AA00070B5041E01D1012070BD050088352B686A
:102AB000002B04D1020084321370FEF795F8242312
:102AC000012122682B6013688B431360A36A002BDB
:102AD00002D02000FFF768FE2000FFF7A7FD0128C5
:102AE000E1D0236807495A6820000A402A215A6029
:102AF0009A688A439A60012219680A431A60FFF7AC
:102B00006BFFD1E7FFB7FFFF0EB400B50B499CB0D8
:102B10001DAB02900690079104910948094904CB26
:102B20000591006802A9019300F0AAF90022029B16
:102B30001A701CB008BC03B01847C046FFFFFF7FE7
:102B4000580000200802FFFF03008218934200D1C2
:102B5000704719700133F9E7014B18687047C04698
:102B60005800002070B500260C4C0D4D641BA410BD
:102B7000A64209D1002600F075FC0A4C0A4D641BE0
:102B8000A410A64205D170BDB300EB58984701369A
:102B9000EEE7B300EB5898470136F2E788350008B6
:102BA000883500088C350008883500087047704764
:102BB00003000A7801311A700133002AF9D17047F5
:102BC00070B50500002910D00C1F2368002B00DA17
:102BD000E418280000F0E2F81D4A1368002B05D124
:102BE00063601460280000F0E1F870BDA34208D9CA
:102BF000206821188B42F3D119685B68091821609D
:102C0000EEE71A005B68002B01D0A342F9D91168E6
:102C10005018A0420BD12068091850181160834247
:102C2000E0D118685B68411811605360DAE7A04290
:102C300002D90C232B60D5E7206821188B4203D1E1
:102C400019685B680918216063605460CAE7C04670
:102C50009803002070B50F4E0D0031680400002964
:102C600002D100F0A1FB30602900200000F09CFBA5
:102C7000431C0AD00323C51C9D43A84207D0291A30
:102C8000200000F091FB013001D101256D422800A8
:102C900070BDC0469C030020F7B50322CB1C9343B4
:102CA000083306001F000C2B38D20C27B94237D846
:102CB000300000F073F8384B00931B681C00002CA8
:102CC00033D139003000FFF7C5FF0400431C5ED14B
:102CD000009B1C682500002D4ED1002C51D023688C
:102CE0002900E3183000019300F05EFB019B834252
:102CF00047D123683000FF1A3900FFF7ABFF0130DE
:102D00003FD02368DB192360009B1B68002B40D059
:102D10005A68A24233D100225A6014E0002BC5DA6F
:102D20000C23002533602800FEBD2168C91B20D478
:102D30000B2918D9E2192760A34212D1009B1A600F
:102D40006368116053603000250000F02FF80722FF
:102D50000B35231D9543EA1A9D42E4D05B1BA3501B
:102D6000E1E75A60ECE76268A342D5D1009B1A60A4
:102D7000E9E723006468A2E72C006D68ABE7130065
:102D8000C4E70C233000336000F010F8CBE7276075
:102D9000D9E75B60FFDEC0469803002010B502480B
:102DA000FFF704FF10BDC0469403002010B5024891
:102DB000FFF7FDFE10BDC04694030020F0B585B0BE
:102DC000019303928E68019A07000C000B689642EB
:102DD00031D88A899021C9000A4229D0032021696B
:102DE0005B1A029363694343DD0FED18019B029860
:102DF00001331B186D10AB4200D91D00520529D5B7
:102E000029003800FFF748FF061E2DD0029A2169DD
:102E100000F0E7FAA289194B1A4080231343A381DB
:102E2000029B2661F61826606561019EED1AA56079
:102E3000019B9E4200D9019E32000399206800F058
:102E40009FFA0020A3689B1BA36023689B19236043
:102E500005B0F0BD2A00380000F0CCFA061EDFD124
:102E600038002169FFF7ACFE0C2301203B60A289EA
:102E700034331343A3814042EAE7C0467FFBFFFFA0
:102E8000F0B5A1B003901D008B890F0016001B0642
:102E900011D50B69002B0ED14021FFF7FDFE3860E4
:102EA0003861002805D10C23039A0138136021B042
:102EB000F0BD40237B61002308AC6361203363765F
:102EC0001033A376079535002B78002B01D0252BE6
:102ED00048D1AB1B0593B5420BD0320039000398A3
:102EE000FFF76CFF013000D1AFE06369059A9B18D2
:102EF00063612B78002B00D1A7E00122002352420E
:102F0000626004A9543252186E1C2360E360A3600F
:102F10001370A365554B052218003178059300F016
:102F200055FA751C00281FD12268D30604D55323F7
:102F300004A95B1820211970130704D5532304A991
:102F40005B182B21197033782A2B16D035000021FD
:102F50000A20E3682A786E1C303A092A4ED90029E3
:102F600011D117E00135AFE7059B2268C01A012394
:102F7000834013432E002360CCE7079B191D1B6879
:102F80000791002B01DB0B9304E05B42E36002231B
:102F9000134323602B782E2B0AD16B782A2B35D143
:102FA000079B02351A1D1B680792002B2BDB099328
:102FB0002F4E03223000297800F008FA002806D0AE
:102FC0004023801B83402268013513432360297806
:102FD000062228486E1C217600F0F8F900283CD023
:102FE000254B002B25D10722079B0733934308333A
:102FF00007936369049A9B18636164E74343350050
:1030000001219B18A6E701235B42D0E700230A2099
:103010001A000135636029786E1C3039092903D9FB
:10302000002BC5D00992C3E7424335000123521853
:10303000F1E707AA009221003A00104B039800E044
:1030400000BF0490049B0133D3D1BB890D985B066C
:1030500000D42CE70120404229E707AA0092210072
:103060003A00064B039800F07BF8EAE75435000875
:103070005A3500085E35000800000000BD2D00082C
:10308000F7B5160001938A680B690C000090934213
:1030900000DA13002200336043321278002A01D094
:1030A0000133336023689B0602D5336802333360F3
:1030B0002268062315001D401A4227D023004333FF
:1030C0001B785A1E93412268920630D4220001993F
:1030D0000098089D4332A847013025D00622236876
:1030E00000251340042B05D13368E568ED1AEB4346
:1030F000DB171D40A3682269934201DD9B1AED187E
:103100000026B54220D1002010E00135E368326886
:103110009B1AAB42D2DD2200012301990098089F3F
:103120001932B8470130F0D101204042FEBD3020B5
:10313000E1184331087021005A1C45310978A21862
:10314000433202331170C1E7220001230199009834
:10315000089F1A32B8470130E6D00136D1E70000A7
:10316000F0B58BB006920A004332079305900492A3
:103170000A7E0C00109B782A09D8622A0BD8002AF4
:1031800000D1BEE07C490391582A00D193E026008B
:103190004236327022E0100063381528F7D8FCF769
:1031A000CFFF16001F00F6FFF6FFF6FFF6FF1F0029
:1031B000F6FFF6FFF6FFF6FFA30036008300F6FFEA
:1031C000F6FFB400F6FF3600F6FFF6FF8700260094
:1031D0001A684236111D1960136833700123A2E08A
:1031E00018680968021D0D060BD505681A60002DC8
:1031F00003DA2D23049A6D4213705F4B0A27039361
:103200001BE005681A604906F1D52DB2EFE70D689D
:103210001968081D18602E0601D50D6803E06D06BB
:10322000FBD50D68ADB2544B082703936F2A00D02D
:1032300002372300002243331A706368A360002B17
:1032400003DB042122688A432260002D02D1049E00
:10325000002B0CD0049E28003900FDF701F8039BD9
:10326000013E5B5C33702B0005009F42F3D9082FB1
:1032700009D12368DB0706D5626823699A4202DC1C
:103280003023013E3370049B9B1B2361079B21006D
:1032900000930598069B09AAFFF7F2FE013047D17B
:1032A000012040420BB0F0BD202209680A43226091
:1032B000782232490391210045310A701968226849
:1032C00020C9100602D4500600D5ADB21960D3074C
:1032D00002D52023134323601027002DA9D12022DB
:1032E000236893432360A4E71A680D68101D496999
:1032F000186013682E0601D5196002E06D06FBD533
:1033000019800023049E2361C0E71A68111D19600B
:10331000166800213000626800F058F8002801D0DB
:10332000801B6060636823610023049A1370ADE71B
:103330003200236906990598079DA8470130AFD050
:1033400023689B0715D4099BE0689842AADA180005
:10335000A8E72200012306990598079E1932B04775
:1033600001309DD00135E368099A9B1AAB42F0DC2D
:10337000E9E70025F7E7C04665350008763500081F
:1033800010B5884202D98B18984203D3002307E076
:103390008B5C8354013AFBD210BDCC5CC454013326
:1033A0009A42FAD1F8E70000002370B5064D0400F8
:1033B00008002B60FDF76CFC431C03D12B68002B2D
:1033C00000D0236070BDC04690030020C9B28218AF
:1033D000904201D10020704703788B42FBD001302E
:1033E000F6E7002310B59A4200D110BDCC5CC4545E
:1033F0000133F8E7F7B507000E001400002905D1E6
:103400001100FFF749FC05002800FEBD002A03D18A
:10341000FFF7D6FB2500F7E700F01BF80190844288
:1034200003D835004308A342EED321003800FFF74C
:1034300033FC051EE8D0019B22009C4200D91A00F3
:1034400031002800FFF7CDFF31003800FFF7B8FB4F
:10345000DAE70B1F1B68181F002B01DA0B58C01886
:1034600070470000F8B5C046F8BC08BC9E467047DF
:0C347000F8B5C046F8BC08BC9E4670478A
:10347C0076616C7665206F70656E0D0A0042617422
:10348C007465727920566F6C746167653A20256497
:10349C000D0A0045466C6F6F6447756172640D0AC6
:1034AC0000466C6F6F640D0A0076616C7665206364
:1034BC006C6F7365640D0A00456E746572696E6796
:1034CC0020536C6565700D0A0000000000000000C0
:1034DC0000000000000000000000000000000000E0
:1034EC0000000000000000000000000001000000CF
:1034FC0002000000030000000400000006000000B1
:10350C000700000008000000090000000000000097
:10351C00000000000000000000000000010000009E
:10352C000200000003000000040000000402080078
:10353C00010002000400060008000A000C00100044
:10354C002000400080000001232D302B2000686CEF
:10355C004C006566674546470030313233343536AA
:10356C0037383941424344454600303132333435E3
:0C357C0036373839616263646566000010
:04358800E90000084E
:04358C00C100000872
:10359000006CDC02010000000400000000000000DC
:1035A00058020020C0020020280300200000000074
:1035B000000000000000000000000000000000000B
:1035C00000000000000000000000000000000000FB
:1035D00000000000000000000000000000000000EB
:0C35E00000000000000000000C000020B3
:0400000508000CE102
:00000001FF
