:020000040800F2
:1000000000300020E10E00083D0E00083F0E000801
:1000100000000000000000000000000000000000E0
:10002000000000000000000000000000410E000879
:100030000000000000000000430E0008450E00080C
:10004000310F0008000000004D0E0008310F0008BD
:10005000310F0008310F0008310F00085D0E000855
:1000600000000000310F0008310F0008310F0008B8
:10007000310F0008310F0008310F000800000000A8
:10008000710E00080000000000000000310F0008A1
:1000900000000000810E0008310F0008310F000839
:1000A00000000000310F000800000000310F0008C0
:1000B000310F0008000000000000000000000000F8
:1000C00010B5064C2378002B07D1054B002B02D02E
:1000D000044800E000BF0123237010BD6000002031
:1000E00000000000403B0008044B10B5002B03D07B
:1000F0000349044800E000BF10BDC04600000000F6
:1001000064000020403B00080023C25C0133002A49
:10011000FBD1581E7047000002B4714649084900DF
:10012000095C49008E4402BC7047C04603B4714666
:10013000490840004900095E49008E4403BC7047ED
:10014000002243088B4274D303098B425FD3030A16
:100150008B4244D3030B8B4228D3030C8B420DD329
:10016000FF22090212BA030C8B4202D312120902B7
:1001700065D0030B8B4219D300E0090AC30B8B42F5
:1001800001D3CB03C01A5241830B8B4201D38B03A3
:10019000C01A5241430B8B4201D34B03C01A524148
:1001A000030B8B4201D30B03C01A5241C30A8B428B
:1001B00001D3CB02C01A5241830A8B4201D38B0276
:1001C000C01A5241430A8B4201D34B02C01A52411A
:1001D000030A8B4201D30B02C01A5241CDD2C3098C
:1001E0008B4201D3CB01C01A524183098B4201D308
:1001F0008B01C01A524143098B4201D34B01C01AF3
:10020000524103098B4201D30B01C01A5241C3086A
:100210008B4201D3CB00C01A524183088B4201D3D9
:100220008B00C01A524143088B4201D34B00C01AC5
:100230005241411A00D20146524110467047FFE731
:1002400001B5002000F006F802BDC0460029F7D035
:1002500076E770477047C04610B5040000F0CAFE4C
:1002600000F0A8FE01220C4B18600C4B1A70802382
:100270001B029C420FD10A4C2378934209D100F013
:1002800099FE084B084A18601B6812689B1A074AB7
:1002900013600023237010BD7C00002000000020AC
:1002A00090000020880000208C00002084000020A6
:1002B00010B5040000F09EFE00F07CFE01223B2100
:1002C0000B4B18600B4B1A700B4B197080231B02E1
:1002D0009C4206D1094B1A7000F06CFE084B186066
:1002E00010BD402CFCD1074802F08AF9F8E7C0465F
:1002F0007C000020000000209400002090000020DE
:100300008C0000205401002010B500F073FE00F0B6
:1003100051FE0122074B1860074B1A70074A1378E9
:100320000133DBB2137013783B2B01D90023137018
:1003300010BDC0467C00002000000020940000207A
:1003400010B5084C84420BD14021074801F0F6FA61
:10035000002802D10122054B1A70200002F07CF91E
:1003600010BDC04654010020000400509100002040
:100370008021A02070B501228900C00501F0E4FAB7
:10038000134D0021280002F009FCE124322000F086
:1003900017FEE4002B681E205C6300F011FE0D4B7D
:1003A000323C9C42F6D1322000F00AFE00212800A7
:1003B00002F046FC322000F003FE8021A020002243
:1003C0008900C00501F0C0FA0122034B1A7070BD0C
:1003D000A001002052030000920000208021A020F4
:1003E00070B501228900C00501F0AEFA134D00215D
:1003F000280002F0D3FBE124322000F0E1FDA4004C
:100400002B681E205C6300F0DBFD0D4B32349C42F8
:10041000F6D1322000F0D4FD0021280002F010FCBB
:10042000322000F0CDFD8021A02000228900C005EF
:1004300001F08AFA0022034B1A7070BDA00100205F
:100440003A07000092000020F7B58027164E3F02C1
:1004500001223900300001F077FA144C200001F03D
:10046000DFF8FA212000890000F0E0FE200000F013
:100470003BFF6B4680B2D88005209D1D00F0A0FD9B
:10048000200001F033F939003000002201F05CFA5D
:1004900000232988064889B288425B41054A28889A
:1004A000137080B2FEBDC04600040050140200204C
:1004B000850B00009300002070B580250C4C6D006A
:1004C00020000122802101F03FFA290001222000B2
:1004D00001F03AFA642000F073FD20000022802130
:1004E00001F032FA29000022200001F02DFA70BD3F
:1004F0000004005070B580250C4CAD002000012296
:10050000802101F021FA29000122200001F01CFACB
:10051000C82000F055FD29002000002201F014FA47
:1005200000228021200001F00FFA70BD000400506D
:1005300070B5802680250E4C76003100AD0020007D
:10054000012201F001FA29000122200001F0FCF94A
:10055000FA20800000F034FD31002000002201F07C
:10056000F3F929000022200001F0EEF970BDC04629
:100570000004005010B50400FFF7C6FD0123210060
:1005800082B25B42074802F033FD0A2000F018FDFA
:100590002000FFF7B9FD00210200200002F04AFE12
:1005A00010BDC046C00000208021A02010B5090267
:1005B000C00501F0C3F9012816D140210B4801F014
:1005C000BDF9012810D10A4B1B78002B01D1FFF790
:1005D000CFFE084C0849200002F060FE2000FFF723
:1005E000C9FF0022054B1A7010BDC0460004005020
:1005F0009200002095000020583B00089100002048
:1006000070B5FFF721FF084B05001B78002B01D0C8
:10061000FFF770FF054C2A000549200002F0EAFDB3
:100620002000FFF7A7FF70BD930000209500002079
:10063000653B0008F8B5454C4549200002F02EFE08
:100640002000FFF797FF4021424801F077F9424D23
:10065000012866D1002363302B7000F0B1FCFFF756
:1006600087FEFA20400000F0ABFCFFF761FF00F0CE
:10067000A1FCFA21394B06001A68C9008A4258D3F6
:100680002A78D1B2002A54D11960FFF715FFFFF77D
:10069000A5FEFFF74DFFFA20400000F091FCFFF7A8
:1006A0000BFFFFF765FE2B78002B1CD02C4A2D4941
:1006B0001368F31A8B4209D92B492000166002F007
:1006C000EDFD2000FFF756FFFFF732FF274B1B78A9
:1006D000012B08D1FFF782FE2000254902F0DEFD44
:1006E0002000FFF747FF234B1B68F61A224B9E4260
:1006F000BDD92B78002BBAD1204F3B78002BB6D038
:10070000FFF7DAFE1E4B1B783B2B01D1FFF778FF7A
:1007100000263E7000F066FC0121300001F02EF949
:10072000A5E7012364202B7000F04AFCFFF756FE7A
:1007300097E796211A6849008A42B4D81A68312A84
:10074000B1D900221A60FFF72FFFACE79500002017
:100750007B3B000800040050910000208400002032
:1007600080000020881300008F3B000892000020CA
:10077000973B00087C000020871300000000002049
:100780009400002000B58DB00822002106A802F0D8
:1007900051FD00211422684602F04CFD0A23059306
:1007A000F633089380235B010993402305A80A933D
:1007B0003F3B0B9301F0FCF8011E01D072B6FEE73F
:1007C000072301900290039004906846009301F083
:1007D00049FA002801D072B6FEE70DB000BD000056
:1007E000F0B5042797B000F0CDFBFFF7CBFF142244
:1007F00000210CA802F01EFD20210124D64BD74871
:100800005A6B00253A435A635A6B03263A400292C8
:10081000029A5A6B0A435A635A6B0A400392039A2C
:100820005A6B1E3922435A635A6B22400492049A2F
:100830005A6B0A435A635A6B0A400592059A5A6BDF
:1008400006310A435A635B6B00220B400693C4498E
:10085000069B01F079F88021A02000228900C005C4
:1008600001F072F8BF4BC0480CA90C930D960E9581
:1008700000F0AAFF0F23BD480CA90C930D960E950E
:1008800000F0A2FFA020BA4B0CA9C0050C930D9656
:100890000E9500F099FFB74BB0480CA90C930D963C
:1008A0000E9500F091FFAE4AAC480CA90C920D9445
:1008B0000E950F9500F088FF8022A02092000CA9D1
:1008C000C0050C920D940E950F9500F07DFF8023CE
:1008D000A0201B020C93A84B0CA9C0050D930E95EC
:1008E00000F072FF0F23A5480CA90C930D960E95EE
:1008F00000F06AFF40230C93A14B98480CA90D937C
:100900000E9400F061FF2A002900072000F00CFF80
:100910000936072000F032FF3200290007A802F054
:1009200089FC1C2229000CA802F084FC954C964BF3
:1009300020002360954B6660E3608023A5602561FD
:10094000A36101F0BBFFA84201D072B6FEE7079099
:10095000099007A9200002F077F9021E01D072B6B3
:10096000FEE760230D900E9010900CA920000C93D0
:1009700002F00AF8051E01D072B6FEE7200000F072
:1009800007FA320029000CA802F054FC804C814B7D
:1009900020002360C0231B06636080239B03236128
:1009A0000823E361631CDD7723002C331D700723CC
:1009B0006363A36323003C33A560E560676125831F
:1009C000A5766562A56225631D70E56400F01EFBD7
:1009D000002801D072B6FEE76F4B0D900E900CA967
:1009E00020000C9300F084FC002801D072B6FEE7D2
:1009F00020000CA90D9700F07BFC002801D072B6F6
:100A0000FEE7082320000CA90D9300F071FC0028DC
:100A100001D072B6FEE720000CA90D9600F068FC2C
:100A2000002801D072B6FEE7102320000CA90D9318
:100A300000F05EFC002801D072B6FEE7142320000F
:100A40000CA90D9300F054FC002801D072B6FEE70B
:100A5000182320000CA90D9300F04AFC002801D0B7
:100A600072B6FEE71C2320000CA90D9300F040FC99
:100A7000031E01D072B6FEE74848494A836002600F
:100A8000E122520242600C22C36003614261836131
:100A9000C36103624362836202F078FB051E01D0EA
:100AA00072B6FEE70100142207A802F0C3FB282259
:100AB00029000CA8019502F0BDFB3A4C3A4B2000EE
:100AC00023607F23A3607E33E36080231B06636182
:100AD0008023DB0565602561A561E361256201F086
:100AE00093FA002801D072B6FEE76A462F4B907742
:100AF000938307A908900A900B900122200001F02F
:100B0000DFFA002801D072B6FEE7294B012220004F
:100B100001A9019301F03CFB002801D072B6FEE769
:100B20006B46322218869B181870224B313A11936B
:100B300031236B440D900F90109012901390DA7740
:100B4000802320005B000CA9159301F073FB0028A3
:100B500032D072B6FEE7C0460010024000040050DA
:100B60008083000080E00000000800500014005066
:100B7000E36D00003F7C000000003110000C0050CD
:100B800000002110A00100200004004034080000F3
:100B9000140200200024014000100030C00000209A
:100BA00000440040EC010020002800401215000025
:100BB000050510240080808080212000090301F0B9
:100BC000E1FB031E01D072B6FEE70A480A4A8360C1
:100BD000026017224260094A0361C2604361836177
:100BE00001F042FE002801D072B6FEE7FFF722FDB9
:100BF000FEE7C04654010020004401404FC30000FE
:100C000072B6FEE701210A4B82B01A6C0A431A64DD
:100C10001A6C0A4080210092009ADA6B49050A4357
:100C2000DA63DB6B0B400193019B02B07047C04657
:100C30000010024010B504008EB01422002102A85A
:100C400002F0F8FA1C22002107A802F0F3FA174B71
:100C500022689A4227D1802307A8DB01079301F07D
:100C6000C7F8002801D0FFF7CBFF8021104B4903C4
:100C70001A6CA0200A431A641A6CC0050A400121AC
:100C80000092009A5A6B0A435A635B6B0B400193C4
:100C9000019B80235B01029303230393002302A99A
:100CA000049300F091FD0EB010BDC0460024014039
:100CB0000010024010B5040088B01C22002101A8D9
:100CC00002F0B8FA144B22689A4223D180239B0287
:100CD0000193802301A89B00079301F089F8002865
:100CE00001D0FFF78DFF80220C4B1202D96D02203C
:100CF0000A438021DA65DA6BC9000A43DA6300220D
:100D0000DB6B0B4000931100009B00F00DFD0220F7
:100D100000F034FD08B010BD002800400010024073
:100D200007B50B4B02689A4210D10221094B1020E3
:100D3000DA6B0A43DA630022DB6B0B40019311008C
:100D4000019B00F0F1FC102000F018FD07BDC0462B
:100D5000000400400010024007B50B4B02689A42A5
:100D600011D18021094B89021A6C15200A431A649B
:100D70001B6C00220B4001930221019B00F0D4FC6C
:100D8000152000F0FBFC07BD0044014000100240AC
:100D900010B5040086B01422002101A802F04AFA1E
:100DA0000C4B22689A4212D104210B4B0B485A6B10
:100DB0000A435A635B6B0B400093009B40230193F3
:100DC0003E3B029301A9013B059300F0FDFC06B0F8
:100DD00010BDC04600040040001002400008005052
:100DE00010B5040088B01422002103A802F022FAF2
:100DF000104B22689A421BD180210F4B8902DA6B7B
:100E0000A0200A43DA63DA6BC0050A400192019A16
:100E10000122596B114359635B6B03A91340029381
:100E2000029B0C2303930A3B0493079200F0CCFC33
:100E300008B010BD0044004000100240FEE7FEE78D
:100E40007047704710B500F0A9F810BD10B5024802
:100E500001F056F810BDC046EC01002010B540204E
:100E600000F078FD8020000200F074FD10BD00004D
:100E700010B5024801F00EFC10BDC046A0010020D4
:100E800010B5024801F006FC10BDC0465401002018
:100E90000B490C4A0300521A0B4910B50868002888
:100EA00001D10A4808600868C318934206D902F0C5
:100EB000C9F90C2303600120404210BD0B60FCE720
:100EC000000400000030002078020020C803002049
:100ED0008022024B12059A607047C04600ED00E088
:100EE0000D488546FFF7F4FF002103E00B4B5B58EC
:100EF000435004310A480B4B42189A42F6D30A4A2F
:100F000002E0002313600432084B9A42F9D302F046
:100F10009FF9FFF765FCFEE700300020603C000809
:100F2000000000206000002060000020C8030020B6
:100F3000FEE7000070B5104B05001978002901D1BB
:100F4000012070BDFA208000FFF7FAF80B4C010079
:100F50002068FFF7F5F800F01DFC041EF0D1032D0A
:100F6000EED8020001202900404200F0DDFB044BD6
:100F700020001D60E5E7C0460800002004000020B6
:100F80000C00002010B50320FFF7D4FF041E03D18E
:100F9000FFF738FE200010BD0124FBE7034A044B95
:100FA00011681B785B1813607047C0467C020020F4
:100FB00008000020014B18687047C0467C020020E2
:100FC00070B50400FFF7F6FF0500631C02D0044B68
:100FD0001B78E418FFF7EEFF401BA042FAD370BD68
:100FE000080000200221024A13688B4313607047F7
:100FF00010E000E00223024A11680B4313607047BF
:1010000010E000E080684007C00F70470023F0B593
:1010100085B004000393984200D1EFE0856D9D42B6
:1010200005D1FFF707FE23005433E5651D708023CB
:1010300025685B05AA681A4200D1A7E00022AB68C8
:101040000192DB0008D410230126A26D0196134300
:10105000A365E36D3343E3652800FFF7D3FF102258
:10106000A36D1340034300D0CBE0A26D674B206912
:101070001A400633FF331343A365AB68DB0761D423
:10108000276BE1687B1E9F41A368A27E0B43217EF4
:101090003F0389030B43617EC9030B4351030B4399
:1010A0009C46002800DB85E0410049082300664695
:1010B0002C331B785B0033433B430B43611CC97FDC
:1010C000012905D1002A00D077E080225202134383
:1010D000626A002A05D0E02149000A40A16A0A4359
:1010E0001343EA684A490A401343EB6023006268ED
:1010F0003C33E16C1B78970FBF079C463943012BAB
:1011000008D1236C666C33430B43A16C0B436146DF
:101110003B4319432B693F4F3B400B4380212B61DD
:1011200053005B08C9058B420CD080231B069A42F2
:1011300008D03949394F0B683B40F027BF033A408C
:1011400013430B60072170276B69626B8B4313435A
:101150006B616969A36BB9431B010B436B61002889
:1011600033D11023A96A5B420B43AB6207216B6941
:101170000B409A4238D10023E365A26D03339A43B2
:10118000023B1343A365019805B0F0BDAA6824494A
:101190000A401343AB60234B23491868FEF7D0FF86
:1011A00040000390039B002B00D147E7039B013BCA
:1011B0000393F7E78021890378E72022A76D3A435C
:1011C000A265E26D1143E16582E780239B039842AB
:1011D000CCD11C21AB6AE369013B9B000B402C394D
:1011E00099400B00216EBFE71223A26D9A43023B88
:1011F0001343A3650123E26D1343E36501230193C8
:10120000C1E7A36D1A43A265F8E7C046FDFEFFFFE4
:101210000102DEFF02FCFF1F08270140FFFFC3FFA2
:10122000E8FFFF6F04000020400D0300F7B5476999
:1012300004000E00082F0AD003680120DB68042791
:10124000034204D02023A26D1343A365FEBDFFF724
:10125000B1FE019025682B681F4224D08023A26D27
:101260009B001343A365C023EA681B011A4215D1F2
:10127000A37E002B12D12B681B070FD52800FFF788
:10128000C1FE002822D10C226B6893436B60A26DD3
:10129000144B1A400433FF331343A365237E002B02
:1012A0001DD00020D2E7731CD5D0FFF783FE019B31
:1012B000C01AB04201D8002ECCD10423A26D543400
:1012C00013436360002303202370BFE72023A26D34
:1012D0001343A3650123E26D1343E365DEE70C23AB
:1012E0002B60DEE7FEFEFFFF0368186C704700000E
:1012F0000023F0B585B003930300009154331A78AE
:1013000004000220012A4DD0012227691A702568A5
:101310002800FFF777FE002800D0E8E0009B0422B9
:101320005B6880219C4697436246009B09061B68C8
:10133000022A00D1B6E05A02520A8F4234D1A96A79
:101340000A43AA62009A6869926819026B4E0A40C1
:101350003240884302436A61002B1FDAC020684A8A
:1013600068491568000428408B4200D08AE080213B
:1013700009040D4212D11368634D2B4003431943F6
:10138000624B116018686249FEF7DAFE0C23434392
:1013900001330393039B002B00D070E00020002357
:1013A0005434237005B0F0BD1F2167460F4010393B
:1013B000B940CE430196266E8E433100002A12D1E9
:1013C000980E1F321040B840624608439208E16907
:1013D000013220668A42B5D8A96A01989A00120F94
:1013E000BA400140ACE701221342ECD1921801202F
:1013F0001342E8D1100002321342E4D101301A073F
:10140000E1D40130DA06DED401309A06DBD40130B3
:101410005A06D8D401301A06D5D40130DA05D2D410
:1014200001309A05CFD401305A05CCD401301A05C9
:10143000C9D40130DA04C6D401309A04C3D40130CF
:101440005A04C0D401301A04BDD40130DA03BAD42E
:1014500001309A03B7D401305A03B4D401301A03CF
:10146000B1D40130DA02AED401309A02ABD480227A
:101470001800D20310401342A5D01620A3E7039B07
:10148000013B86E723498B4200D087E78021C903CF
:101490000D4200D082E713681B4D2B4003431943D4
:1014A00011607BE78F4204D1AA6A5902490A8A4334
:1014B000AA62002B00DB71E7114912480A688342D7
:1014C00008D18023DB03086813400F4A024013430E
:1014D0000B6063E70F48834200D05FE78020000481
:1014E0000B680240084803401A430A6056E720236D
:1014F000A26D01201343A36551E7C04600FFFF7FA3
:1015000008270140000200A4FFFF3FFF0400002065
:10151000400D0300000400A870B505680400280011
:10152000FFF770FD002801D1002070BDAB689B075C
:1015300005D4AA680D4B1A4010231343AB60FFF784
:1015400039FD0426050023689B683342ECD0FFF781
:1015500031FD401B0228F6D910230120A26D134350
:10156000A365E36D0343E365DFE7C046E8FFFF7F64
:101570000023F7B502680193916801330400194212
:1015800001D00020FEBD90682049084208D01022FA
:10159000A16D0A43A265E26D13430120E365F1E703
:1015A00091681B4F39400B4393601A4B1B681B0219
:1015B0001DD4637E012BE4D0FFF7FCFC012506005F
:1015C000226813682B42DCD193682B4203D19368C5
:1015D0003B402B439360FFF7EDFC801B0228EFD9C3
:1015E0001023A26D1343A365E26D0123D4E70A4BD8
:1015F0000A491868FEF7A4FD01300190019B002BF9
:10160000D7D0019B013B0193F8E7C046170000804B
:10161000E8FFFF7F0827014004000020400D030081
:1016200070B504000068FFF7EDFC06000220002EF4
:101630001DD1250054352B78012B18D00123200013
:101640002B70FFF795FF002812D1A26D094B1A40AD
:1016500080235B0013431C22A3652368E0651A60A6
:1016600028709968044A114004220A439A6070BDA8
:101670002E70FCE7FEF0FFFFE8FFFF7F012203680A
:1016800070B5040098689968114201D1002070BDBE
:1016900002210842FAD105209D680540012D1AD18A
:1016A0009A68114802401143032299601A60FFF7BB
:1016B00081FC060023689B682B42E7D0FFF77AFC89
:1016C000801B0228F6D91023A26D1343A365E36D96
:1016D0002B43E36506E01023A16D0B43A365E36D87
:1016E0001A43E2650120D2E7E8FFFF7F70B50600EC
:1016F0005436337804000220012B12D0012520003B
:101700003570FFF709FF002809D12000FFF7B6FF69
:10171000002804D1A36D034A13401D43A56500238F
:10172000337070BDFEFEFFFF10B5FF2403220B00D7
:1017300021000240D20091409B012340C9439340C5
:1017400000280ADBC0240B4A800880008018A4000F
:1017500002590A401343035110BD0F2210400838AC
:10176000054A800880008018C26911401943C16190
:10177000F2E7C04600E100E000ED00E0002805DBF4
:101780001F2318401E3B8340014A13607047C04628
:1017900000E100E08022431E5204012093420DD25A
:1017A000C021074A07485360036A09061B021B0A47
:1017B0000B43036200200723906013607047C0460C
:1017C00010E000E000ED00E000239C46F0B585B09D
:1017D0000B6864461A00E24001D105B0F0BD6246D4
:1017E000012696401A0032400192334200D194E023
:1017F0004F6810233D009D430395022D14D163468D
:10180000DA0892008218136A07241D0063461C4000
:101810000F23A400A3409D4302950F250B692B4085
:10182000A340029C2343136263465A000323934060
:101830000468DD439C4303233B4093400295039D92
:101840002343013D0360012D0FD88468029B0125CD
:101850001C40CB689340234383603B092B40654683
:10186000AB404468B44323434360032F55D0C4685E
:10187000029B1C408B6893402343C36080235B051D
:101880001F424AD063469A08254B9200D21803247F
:1018900063461C400F23E400A340A026156EF60506
:1018A0009D430023B04210D01E4E0133B0420CD0F5
:1018B0001D4E0133B04208D01C4E0133B04204D05B
:1018C0001B4BC3185E1EB3410533A3402B43136665
:1018D000184B019ADD6F019CD2432C43FE0301D4C7
:1018E0002C001440DC67144C019DE36F1D43BE03C4
:1018F00001D413401D000A4BE5671D68019C2C4371
:10190000FE0201D42C0014401C605C68019D25433C
:10191000BF0201D4144025005D6001239C4457E7B9
:10192000001802400004005000080050000C005055
:1019300000ECFFAF0418024008180240006908409C
:10194000431E9841C0B27047002A01D081617047A0
:101950008162FCE770B5084D0400EB68184202D0C4
:10196000E860FEF779FC2B69234203D020002C614C
:10197000FEF79EFC70BDC0460018024007200A4AD0
:101980001368834313600422084B186902431A61E9
:10199000012905D130BF04211A698A431A617047B1
:1019A00040BF20BF20BFF6E70070004000ED00E020
:1019B000F8B5051E01D10120F8BD0368DB070DD481
:1019C0002B689B074FD42B681B0700D5A4E004228B
:1019D0002B68134200D0CFE00020EDE73821854C82
:1019E0004368A2680A40082A02D1002BE8D1E2E746
:1019F00080225202934211D1226813432360FFF7E1
:101A0000D9FA80270600BF0223683B42D8D1FFF7EE
:101A1000D1FA801B6428F7D90320CDE7A021C902A1
:101A20008B4208D180232168DB020B4323602368AB
:101A30001A432260E3E722686F490A402260226865
:101A40006E490A402260002BD9D1FFF7B3FA8027F4
:101A50000600BF0223683B42B2D0FFF7ABFA801BFF
:101A60006428F7D9D8E73822624CEB68A1681142A4
:101A70001CD1002B9FD062686B6961491B020A4030
:101A80001343636023685F4A5F4913402A69134325
:101A9000236023685D4A9B045B0FDA405C4B0A605D
:101AA0001868FFF747FA00288DD084E7002B20D074
:101AB0002368544A802713402A69FF001343236098
:101AC000802322685B0013432360FFF773FA06004C
:101AD00023683B4207D062686B6949491B020A4090
:101AE000134363606FE7FFF765FA801B0228EFD9A5
:101AF00092E72368474A802713402360FFF75AFA8A
:101B00000600FF0023683B4200D15CE7FFF752FA72
:101B1000801B0228F6D97FE73821364CAA69A368D2
:101B20000B40182B03D1002A00D050E743E70123D4
:101B3000002A10D0226E022713432366FFF73AFAD9
:101B40000600236E3B4200D041E7FFF733FA801BCB
:101B50000228F6D960E7226E02279A432266FFF731
:101B600029FA0600236E3B4200D130E7FFF722FA44
:101B7000801B0228F6D94FE738211E4CA868A368BD
:101B80000B40202B03D143425841C0B214E7E36D10
:101B9000012810D10343E365FFF70CFA0226050084
:101BA000E36D334200D017E7FFF704FA1A4B401BEE
:101BB0009842F5D930E7052805D11343E3650123A1
:101BC000E26D1343E7E701218B43E365E36D934344
:101BD000E3650028E0D1FFF7EDF902260500E36D8B
:101BE000334200D1F8E6FFF7E5F90B4B401B984272
:101BF000F5D911E700100240FFFFFEFFFFFFFBFFDA
:101C0000FF80FFFFFFC7FFFF04000020006CDC0225
:101C10000C000020FFFEFFFF8813000038220F4B4E
:101C20009968114205D11B680D489B045B0FD84091
:101C300070479968114008290BD0996811402029F4
:101C400009D09B6800201340182BF1D1FA20C00165
:101C5000EEE70348ECE780200002E9E700100240CD
:101C6000006CDC02F7B504000D00002801D1012052
:101C7000FEBD07274B4E33683B408B422AD3226878
:101C800093073BD4D2074AD4072733683B40AB4283
:101C90000AD93368BB432B433360FFF78BF90190BC
:101CA00033683B40AB426DD123683F4D5B0771D435
:101CB000FFF7B4FFAB683D491B051B0F9B005B584A
:101CC0001F210B40D8403A4A3A4B10601868FFF782
:101CD00031F9CDE73368BB430B433360FFF76AF953
:101CE000019033683B40AB42C9D0FFF763F9019BD9
:101CF000C01A314B9842F4D90320B9E72A49530757
:101D000006D588682D4B1840B0231B0103438B6018
:101D10008B682B480340E06803438B60B2E71C22CA
:101D2000214F3B689343A26813433B606268012ADA
:101D300019D13B689B039AD50721BB688B4313439A
:101D4000BB60FFF737F901903823BA681A4063681F
:101D5000DB009A4298D0FFF72DF9019BC01A164B71
:101D60009842F1D9C8E7002A03D13B685B05E3D468
:101D70007DE70223032A03D1396E1942DCD176E7CD
:101D8000F96DFAE7FFF716F9019BC01A0A4B984262
:101D900086D9B1E7AB680B4A134022691343AB60A5
:101DA00086E7C0460020024000100240C83B000801
:101DB000040000200C00002088130000FF84FFFFB7
:101DC000FFF0FFFFFF8FFFFF064B07499B68074AA5
:101DD0005B045B0F9B005B581F2110680B40D840D1
:101DE0007047C04600100240A83B000804000020D5
:101DF0000368F7B5050000209B0323D58022394CEA
:101E00005205E36B0700134207D1E36B013713431D
:101E1000E363E36B13400193019BE16DC022080073
:101E20009200AB69104011423BD10020E36D2E4A75
:101E30001340AA691343E365012F03D1E36B2B4AD7
:101E40001340E3632A68D30706D5032425494B6D65
:101E5000A343AC6823434B65530606D52149244C64
:101E60004B6D2340EC6823434B65530406D51D4955
:101E70006C694B6D9B009B0823434B65130506D58E
:101E800018491C4C4B6D23402C6923434B65002A99
:101E900006DAE021134A13688B4369680B43136029
:101EA000FEBD98420CD0E36D0F4AE16D13408022D5
:101EB00052020A43E265E26D0F490A40E265E365BA
:101EC000DB07B2D5FFF776F806000222E36D134276
:101ED000ABD1FFF76FF8094B801B9842F5D903206F
:101EE000AAE7C04600100240FFFCFFFFFFFFFFEF24
:101EF000FFCFFFFFFF3FFFFFFFFFFEFF8813000044
:101F0000036810B59A690400D20408D50122196D3E
:101F1000114204D0D96D0A43DA65FEF7F5F90123C1
:101F20000634E37710BDA0210268F8B5D368040039
:101F30008B43D360FFF73EF8FA2705002026BF0049
:101F40002368DB68334208D1FFF734F8401BB842FE
:101F5000F6D92368DB68334201D00020F8BD0320A6
:101F60000634E077FAE70368F7B5DA68402516002B
:101F700004002E402A4201D00020FEBD8022D968F4
:101F8000FA270A43DA60FFF715F801903000BF0026
:101F90002368DB681E002E402B42EED10328ECD0D4
:101FA000FFF708F80300019A30009B1ABB42EFD9F3
:101FB0002368DB682B42DFD10320A31DD877E7E736
:101FC000802270B50F4C0500E3689343E360A3697A
:101FD000603A134207D1FFF7A6FF002802D0032082
:101FE0000635E87770BDA3699343A361FFF79BFFB4
:101FF000002802D003200635E8772023A269134386
:10200000A361EFE70028004070B504000120002C18
:1020100012D0A51DEB7FDAB2002B04D1631D200086
:10202000DA77FEF747FE0223EB772368DA68D206F9
:1020300003D501230020EB7770BDCA225A62773A9C
:1020400020005A62FFF78FFF002825D12368154929
:102050009A6920690A409A61626899690243A06995
:1020600002430A439A61E26820001A61A268196972
:1020700012040A431A61FFF7A3FF00280CD122685B
:10208000E6699369DB00DB089361236A9169334356
:10209000666933430B439361FF2223685A62002829
:1020A000C7D0C9E7BFFF8FFF0023092803D81B0152
:1020B0001843C0B270470A380133C0B2F5E70000D8
:1020C000F0B5431D85B002931700DA7F02230500A7
:1020D0000C001800012A49D00122691DCA77AA1DE7
:1020E000D3770392CA222B6828005A62773A5A6241
:1020F000FFF739FF00282ED162782E680192B2696D
:102100004023110020781940002F31D11A4200D10C
:10211000E170FFF7C9FF07000198FFF7C5FF0190C5
:10212000A078FFF7C1FFE278019B920510433F04BE
:1021300038431B021843144B144A18403060B369EB
:1021400021691340B361E368B2690B43134328006C
:10215000B361FFF735FFFF222B685A62002802D1D6
:102160000123039AD3770023029AD37705B0F0BDF9
:102170001A4200D1E170019B00041B021843A378AE
:102180001843E3789B05D5E77F7F7F00FFFFFBFFC8
:102190000223F0B5461D0D00F17F040085B0180044
:1021A00001292CD00121A71DF177FB77A978E878C8
:1021B0006B780191297849030291002A21D0019A74
:1021C00005040D4315431B02CA221D43236820004A
:1021D0005A62773A5A62FFF7C6FE002806D1144ABF
:1021E0002368154020005D60FFF7EAFEFF222368A8
:1021F0005A62002801D10123FB770023F37705B051
:10220000F0BD1022134202D093430A336B70FFF7E4
:102210004BFF03906878FFF747FF05000198FFF731
:1022200043FF039B029A1B04104303432D02CBE799
:102230003FFFFF000223F0B50C00411DCE7F0500DB
:1022400085B01800012E00D195E00138C877A91D8E
:10225000CB77E1692E680091617820780191A778A9
:102260003E33002A62D1B269110019401A4200D1EE
:10227000E170FFF719FF02900198FFF715FF019039
:102280003800FFF711FF0700631CD87FFFF70CFF32
:102290006269E37800999B051143029A0B433B4323
:1022A00012041343019A0706120213431F43636883
:1022B000626A0093A3690193CA237362773B7362D6
:1022C000AD339A4222D10124B3692C4A1340B36141
:1022D000F36D2343F365FEF76DFEFA260290B60018
:1022E0002B68DA68110021400391224234D0019911
:1022F000009A1F640A435A648022996952000A4373
:102300009A618022996952010A439A6180231C4A8A
:102310001B03D16F00200B43D367FF222B685A6247
:10232000AB1DFE3A0535DA77E87724E0B269110093
:1023300019401A4200D1E1706369009A00041A43FF
:10234000019B17431B0207431F43E3789B051F4371
:10235000631CDB7F1B06A9E7FEF72CFE029BC01A5D
:10236000B042BDD9FF2203202B685A62AB1DD8773B
:10237000039B0535EB7705B0F0BDC046FFFEFFFFC0
:10238000041802400A00022130B5441DE57F030015
:102390000800012D18D0981DC1771B68C8315962FB
:1023A000773959629969094D2940996199691143B1
:1023B00080229961996912040A439A61FF225A6244
:1023C0000123C3770020E07730BDC046FFFFF7FF51
:1023D00070B50124036A026AA24302624468164A85
:1023E000856915400A681543022293438A6813439E
:1023F000124A904205D0124EB04202D0114EB04265
:1024000013D10826B343CE6833430426B343904226
:1024100005D00B4A904202D00A4A904205D10A4A9E
:102420008E6922404C69344314434A684460856194
:102430004263036270BDC0468CFFFEFF002C01406A
:102440000044014000480140FFFCFFFF70B5174AFF
:10245000056A036A134003624268154BC4691C4055
:102460000B681C43134B1D408B681B022B43124D02
:10247000A8420ED1114D1D40CB681B022B43104DBD
:102480002B40104D4E6915408A69324312012A4390
:1024900005E00D4DA842F4D00C4DA842F1D04260A9
:1024A0004A68C461C263036270BDC046FFFEFFFF9D
:1024B0008CFFFEFFFFFDFFFF002C0140FFF7FFFF39
:1024C000FFFBFFFFFFCFFFFF00440140004801403A
:1024D00030B5124A046A036A114D1340036243681F
:1024E000C2692A400D682D0215430E4A14408A68BD
:1024F000120322430C4CA04205D00C4CA04202D047
:102500000B4CA04204D10B4C1C404B699B01234354
:1025100043604B68C5610364026230BDFFEFFFFF9B
:10252000FF8CFFFEFFDFFFFF002C01400044014055
:1025300000480140FFBFFFFF70B5066A104C036AF8
:10254000104A234003624368456D15400A681543ED
:102550000D4A16408A68120432430C4EB04205D030
:102560000B4EB04202D00B4EB04203D11C404B691F
:102570001B02234343604B6845658365026270BD5F
:10258000FFFFFEFF8FFFFEFFFFFFFDFF002C01405E
:10259000004401400048014030B5124A046A036A11
:1025A000114D134003624368426D2A400D682D02AD
:1025B00015430E4A14408A68120522430C4CA0426F
:1025C00005D00C4CA04202D00B4CA04204D10B4CC5
:1025D0001C404B699B02234343604B684565C365C0
:1025E000026230BDFFFFEFFFFF8FFFFEFFFFDFFF47
:1025F000002C01400044014000480140FFFFFBFF68
:1026000001000300012010B53D310C78E2B2844294
:1026100018D1001808701B68D9681143D9600B499C
:102620008B4202D00A498B420DD19A6809490A406F
:10263000062A06D007398A4203D0012219680A43C4
:102640001A60002010BD1968F9E7C046002C01404F
:1026500000040040070001000121036810B5DA689A
:102660008A43DA601C6A074A144206D11C6A064A89
:10267000144202D11A688A431A6001233D30037064
:10268000002010BD11110000440400007047704785
:10269000704770470222036870B5DD681E69040048
:1026A00016420DD015420BD0053A1A61043202775A
:1026B0009B699B0700D17CE0FFF7E9FF00232377AC
:1026C00004231E4212D01D4210D00522236852421C
:1026D0001A61073222779A69C0239B0020001A42B0
:1026E00000D16CE0FFF7D3FF0023237708231E42BD
:1026F0000FD01D420DD00922236852421A610D32BB
:102700002277DB6920009B075FD0FFF7C0FF002323
:10271000237710231E4211D01D420FD011222368AF
:1027200052421A6119322277DA69C0239B002000D5
:102730001A4250D0FFF7ABFF0023237701231E423C
:1027400008D01D4206D002222368524220001A619E
:10275000FDF7F6FD80231E4208D01D4206D08122DF
:102760002368524220001A6100F09FFAF30507D552
:102770002B0605D523681B4A20001A6100F096FA43
:1027800040231E4208D01D4206D0412223685242F7
:1027900020001A61FFF77DFF20231E4208D01D4252
:1027A00006D021222368524220001A6100F07CFAF0
:1027B00070BDFFF76BFF2000FFF76AFF7EE7FFF7B2
:1027C00065FF2000FFF764FF8EE7FFF75FFF200043
:1027D000FFF75EFF9BE7FFF759FF2000FFF758FF69
:1027E000AAE7C046FFFEFFFF194A10B503689042F2
:1027F00002D0184CA04208D17024A3434C68234354
:1028000090420BD0134CA04208D0134CA04205D0EC
:10281000124CA04202D0124CA04203D1114C1C40D9
:10282000CB6823438024A3434C69234303608B6814
:10283000C3620B688362904205D0084B984202D075
:10284000074B984201D10B6903630123436110BD1B
:10285000002C0140000400400020004000440140E2
:1028600000480140FFFCFFFF70B504000120002C70
:1028700023D025003D352B78DAB2002B05D123007B
:102880003C3320001A70FEF767FA02232B70206891
:10289000211DFFF7A9FF22000123002048321370F9
:1028A00047340A3A137053709370D3701371537195
:1028B0009371D371137223702B7070BD70B50400C7
:1028C0000120002C23D025003D352B78DAB2002BD7
:1028D00005D123003C3320001A70FEF721FA0223B1
:1028E0002B702068211DFFF77FFF220001230020AD
:1028F0004832137047340A3A137053709370D37090
:10290000137153719371D371137223702B7070BD57
:10291000102270B5056A036A164C9343036242683D
:10292000836923400C6824021C4320239D438B6849
:102930001B012B43104DA8420FD18025AB431E0035
:10294000CB68403D1B013343AB430C4D4E691540F2
:102950008A69324392002A4305E0094DA842F4D027
:10296000084DA842F1D042604A68846182630362E4
:1029700070BDC046FF8CFFFE002C0140FFF3FFFF3F
:102980000044014000480140F8B507003C371500FD
:102990003A7803000C000220012A0CD0013838706C
:1029A0000C2D51D008D8042D2DD0082D3CD0002D51
:1029B00017D000233B70F8BD102D58D0142DF8D13E
:1029C0001D682800FFF7E8FD80236A6D1B01134393
:1029D0006B656B6D2E4A13406B6523696A6D1B0234
:1029E00053E01D682800FFF7F3FC0823AA6913438E
:1029F0000422AB61AB699343AB61AB6922691343BA
:102A0000AB610020D5E71D682800FFF781FF802318
:102A1000AA691B011343AB61AB691D4A1340AB614B
:102A20002369AA691B02EAE71E683000FFF70EFD62
:102A30000422F3691D43F561F3699343F361F3697C
:102A400022691343F361DCE71D682800FFF740FDAE
:102A50008023EA691B011343EB61EB690C4A1340C5
:102A6000EB612369EA691B021343EB61C9E71D6847
:102A70002800FFF761FD08236A6D134304226B658C
:102A80006B6D93436B656B6D226913436B65B8E7A0
:102A9000FFFBFFFF1F2310B5012419408C408A4023
:102AA000036AA3430362036A1A43026210BD000073
:102AB000020010B508291CD006D800290BD0042923
:102AC00014D01300433308E00C2915D01029F8D195
:102AD0000300423301E003003E331B78013B581EE4
:102AE0008341DBB20120002B09D010BD03003F332E
:102AF000F3E703004033F0E703004133EDE702233F
:102B0000082933D006D800290BD004292BD0100077
:102B1000433008E00C292CD01029F8D110004230A5
:102B200001E010003E300370146801222000FFF71E
:102B3000B1FF154A94421FD0144B9C421CD0144B39
:102B40009C4219D0134B9C4207D1A368124A1340F0
:102B5000062B06D0073A934203D001232268134381
:102B600023600020C1E710003F30DCE71000403058
:102B7000D9E710004130D6E78023616C1B020B437C
:102B800063649442E1D0DDE7002C01400044014041
:102B900000480140000400400700010010B5FFF7A5
:102BA00087FF10BD70B505680022040028000E00E4
:102BB000FFF770FF1C4B1D4A9D4205D01C4B9D42E8
:102BC00002D01C4B9D420AD12B6A134207D1296ABD
:102BD000194B194203D16B6C18490B406B642B6A7B
:102BE000134207D12A6A144B1A4203D101222B68DF
:102BF00093432B600123002E03D13E340020237029
:102C000070BD0C2E0ED005D8042E07D0082E07D08C
:102C10004334F3E7102EFBD14234EFE73F34EDE7C6
:102C20004034EBE74134E9E7002C0140111100008A
:102C3000004401400048014044040000FF7FFFFFC2
:102C400010B5FFF7AFFF10BDF0B5040002223C3411
:102C5000257803001000012D1FD01D003D352A707E
:102C60001A680E4E53689068B24203D10C4F3B4035
:102C70004F683B437027BB430F683B435360B242EE
:102C800002D0084B9A4204D1802398438B681843A2
:102C90009060012300202B702070F0BD002C0140BB
:102CA000FFFF0FFF000400407047704770470000AF
:102CB00030B5EFF31084012282F310880168134DC0
:102CC0000B682B400B6084F31088EFF3108182F3C4
:102CD000108802680E4C93682340936081F310883B
:102CE000C36E012B0AD1EFF3108183F310881024F7
:102CF00002681368A343136081F310880300202245
:102D00008C331A600023C366436730BDDFFEFFFFCC
:102D1000FEFFFFEF70B504002569A1680368294331
:102D20006569C26929431868504D11432840014321
:102D3000196059684E48256A0140E06801435960AE
:102D4000A169986829434B4D284001430F209960A1
:102D5000D96A8143606A0143D96247498B4215D1E0
:102D60000321464B5B6D0B40013B022B6FD844495E
:102D7000C85C80231B029A4237D1082865D8FDF72A
:102D8000CBF96A640B643164646414003D495B18D8
:102D9000591E8B411801ECE7384B3B48196809066E
:102DA000490F0131FDF7CCF90200616A374B490048
:102DB0001000C95AFDF7C4F9656840006B08C018D7
:102DC0002900FDF7BDF90200314B103A9A423CD878
:102DD0000F23020000079A4393B2400F2268034377
:102DE000D3603CE0FEF71AFF37E008282DD8FDF746
:102DF00093F9052C0A2C262C2C2C2900FEF7E4FF35
:102E000000282CD007E01D4B1F4819680906490F00
:102E10000131FDF795F9626A1C4B5200D15AFDF75A
:102E20008FF965686B08C0182900FDF789F9020061
:102E3000174B103A9A4208D82368D8600FE0FEF783
:102E4000EDFEDDE780200002E5E7012008E08023B9
:102E50001B029A42D2D1FEF7B7FF021EA5D1002075
:102E60000C4BA36600236367A36770BDF369FFCFB4
:102E7000FFCFFFFFFFF4FF110038014000100240B8
:102E8000083C000800BCFFBF006CDC020C3C0008E2
:102E9000EFFF000001000100836A30B51A0706D574
:102EA0000168284C4A682240846B22434A60DA0752
:102EB00006D50168244C4A682240C46A22434A600D
:102EC0009A0706D50168214C4A682240046B2243C8
:102ED0004A605A0706D501681D4C4A682240446B77
:102EE00022434A60DA0606D501681A4C8A682240F5
:102EF000C46B22438A609A0606D50168164C8A681C
:102F00002240046C22438A605A0610D50168134D92
:102F10004A68446C2A4022434A6080225203944209
:102F200005D14A680E4C2240846C22434A601B063D
:102F300006D502680B4953680B40C16C0B435360C4
:102F400030BDC046FF7FFFFFFFFFFDFFFFFFFEFF1D
:102F5000FFFFFBFFFFEFFFFFFFDFFFFFFFFFEFFFC5
:102F6000FFFF9FFFFFFFF7FFF7B504000D001700FD
:102F700000932268D3692B405B1B59424B41BB42F3
:102F800001D0002021E0089B0133F3D0FEF712F8B6
:102F9000009BC01A089B984228D8002B26D0236893
:102FA0001A685207E5D5DA69082611003140019107
:102FB00032420BD020001E62FFF77AFE23009033CE
:102FC0001E600023012084342370FEBD8022D96955
:102FD00012011142CDD01A622000FFF769FE2300D2
:102FE000202290331A60019B843423700320ECE785
:102FF000F0B51700020087B088320593136804000B
:103000000D000220202B39D10138002936D0002FA5
:1030100034D08023A1685B01994204D12369002B3D
:1030200001D105422AD12300002690331E602123BE
:103030001360FDF7BFFF230054331F800233039357
:103040001F808023A26804905B019A4204D1236907
:10305000B34201D12E001D00230056331B889AB2C3
:10306000002B0DD1059B200000934021049BFFF70E
:103070007BFF20238834236000280ED107B0F0BDE9
:10308000059B0022009380212000049BFFF76CFF2A
:10309000002804D02023883423600320EEE7226830
:1030A000002D0BD133880236DB05DB0D9362039BC9
:1030B000039A1B88013B9BB21380CDE72B78013527
:1030C0009362F4E7030073B50026040090331E609A
:1030D000FDF770FF236805001B681B071FD58021C3
:1030E000284B32000093890303002000FFF73CFFC8
:1030F000B04214D0EFF31081012383F310888020B5
:10310000226813688343136081F310882300202210
:1031100088331A60032000238434237076BD260090
:1031200023688C361B685B0723D58021154B002252
:10313000009320002B00C903FFF716FF002818D0CA
:10314000EFF31080012282F3108821680E4D0B6886
:103150002B400B6080F31088EFF3108082F310880F
:1031600021688B6893438B6080F310882023336041
:10317000D0E723002022002088331A603260E06606
:103180002067C8E7FFFFFF01DFFEFFFF70B5041EE9
:1031900001D1012070BD050088352B68002B04D1BA
:1031A000020084321370FDF71BFE242301212268E4
:1031B0002B6013688B431360A36A002B02D020009E
:1031C000FFF76AFE2000FFF7A5FD0128E1D0236884
:1031D00007495A6820000A402A215A609A688A439F
:1031E0009A60012219680A431A60FFF76BFFD1E762
:1031F000FFB7FFFF0EB400B50B499CB01DAB0290AA
:103200000690079104910948094904CB059100688B
:1032100002A9019300F0A6F90022029B1A701CB0CB
:1032200008BC03B01847C046FFFFFF7F1000002016
:103230000802FFFF03008218934200D17047197003
:103240000133F9E7014B18687047C04610000020B1
:1032500070B500260C4C0D4D641BA410A64209D17C
:10326000002600F06DFC0A4C0A4D641BA410A64217
:1032700005D170BDB300EB5898470136EEE7B300B7
:10328000EB5898470136F2E7583C0008583C0008D4
:103290005C3C0008583C00087047704703000A78FF
:1032A00001311A700133002AF9D1704770B5050059
:1032B0000C1E10D0043C2368002B00DAE418280010
:1032C00000F0E0F81D4A1368002B05D1636014601C
:1032D000280000F0DFF870BDA34208D9206821184B
:1032E0008B42F3D119685B6809182160EEE71A0078
:1032F0005B68002B01D0A342F9D911685018A04295
:103300000BD120680918501811608342E0D1186869
:103310005B68411811605360DAE7A04202D90C23C0
:103320002B60D5E7206821188B4203D119685B68B0
:103330000918216063605460CAE7C046C4030020D6
:1033400070B50F4E0D0031680400002902D100F065
:1033500099FB30602900200000F094FB431C03D14E
:1033600001256D42280070BD0323C51C9D43A84262
:10337000F8D0291A200000F085FB0130F2D1EFE7E8
:10338000C0030020F7B50322CB1C9343083305008C
:103390001F000C2B34D20C27B94233D8280000F080
:1033A00071F8374E33681C00002C2FD139002800EB
:1033B000FFF7C6FF0400431C5FD134680094009BF4
:1033C000002B4AD1002C52D023682800E318009922
:1033D000019300F057FB019B834248D123682800EA
:1033E000FF1A3900FFF7ACFF013040D02368DB192A
:1033F000236033685A68002A33D1009B336019E098
:10340000002BC9DA0C232B600020FEBD2168C91BEC
:1034100020D40B290AD9E2192760A34204D13260D3
:1034200063681160536005E05A60F9E76268A3427F
:103430000ED13260280000F02DF8200007220B305A
:10344000231D9043C21A9842DFD01B1AA350DCE719
:103450005A60EFE723006468A6E7009C6368009366
:10346000ADE71A005B68A342FBD10023DAE70C2327
:1034700028002B6000F00EF8C6E70760DAE7C046C8
:10348000C403002010B50248FFF706FF10BDC04678
:10349000BC03002010B50248FFF7FFFE10BDC04678
:1034A000BC030020F0B58E6885B01F000C000B68CF
:1034B00002900392BE4230D80C21625E9021C90076
:1034C0000A4228D0032021695B1A019363694343B0
:1034D0000198DD0FED187B1C1B186D10AB4200D955
:1034E0001D00520528D529000298FFF74BFF061E44
:1034F0002CD0019A216900F0E2FAA289184B1A40F7
:1035000080231343A381019B2661F61826603E00A9
:103510006561ED1AA560BE4200D93E0032000399F4
:10352000206800F09BFA0020A3689B1BA36023681F
:103530009B19236005B0F0BD2A00029800F0C8FA7C
:10354000061EE0D121690298FFF7B0FE0C2301208E
:10355000029A40421360A28934331343A381E9E7FE
:103560007FFBFFFFF0B5A1B003901D008B890F001A
:1035700016001B0611D50B69002B0ED14021FFF759
:1035800001FF38603861002805D10C23039A1360CD
:1035900001204042CFE040237B61002308AC6361FF
:1035A000203363761033A376079535002B78002BF4
:1035B00001D0252B48D1AB1B0593B5420BD032006F
:1035C00039000398FFF76EFF013000D1AEE0636968
:1035D000059A9B1863612B78002B00D1A6E001228D
:1035E00000235242626004A9543252186E1C2360B8
:1035F000E360A3601370A365544B05221800317873
:10360000059300F051FA751C00281FD12268D306DB
:1036100004D5532304A95B1820211970130704D57E
:10362000532304A95B182B21197033782A2B16D049
:10363000350000210A20E3682A786E1C303A092AF6
:1036400050D9002911D117E00135AFE7059B226859
:10365000C01A0123834013432E002360CCE7079B4D
:10366000191D1B680791002B01DB0B9304E05B42E3
:10367000E3600223134323602B782E2B0CD16B784D
:103680002A2B34D1079B02351A1D1B680792002B89
:1036900001DA01235B4209932D4E03223000297881
:1036A00000F002FA002806D04023801B83402268E5
:1036B0000135134323602978062226486E1C2176A3
:1036C00000F0F2F9002838D0234B002B22D107223A
:1036D000079B07339343083307936369049A9B1846
:1036E000636162E74343350001219B18A4E700238F
:1036F0000A201900013563602A786E1C303A092AC5
:1037000003D9002BC8D00991C6E7414335000123F6
:103710008918F1E707AA009221003A000F4B03989D
:1037200000E000BF0490049B0133D6D1BB890D9803
:103730005B0600D52CE721B0F0BD07AA009221005E
:103740003A00064B039800F07BF8EBE7243C0008B6
:103750002A3C00082E3C000800000000A5340008A8
:10376000F7B5160001938A680B690C00009093422C
:1037700000DA13002200336043321278002A01D0AD
:103780000133336023689B0602D53368023333600C
:103790002268062315001D401A4227D02300433318
:1037A0001B785A1E93412268920630D42200019958
:1037B0000098089D4332A847013025D0062223688F
:1037C00000251340042B05D13368E568ED1AEB435F
:1037D000DB171D40A3682269934201DD9B1AED1897
:1037E0000026B54220D1002010E00135E3683268A0
:1037F0009B1AAB42D2DD2200012301990098089F59
:103800001932B8470130F0D101204042FEBD3020CE
:10381000E1184331087021005A1C45310978A2187B
:10382000433202331170C1E722000123019900984D
:10383000089F1A32B8470130E6D00136D1E70000C0
:10384000F0B58BB006920A004332079305900392BD
:103850000A7E0C00109B782A09D8622A0BD8002A0D
:1038600000D1BCE07B490491582A00D190E02500AA
:1038700042352A7022E0100063381528F7D8FCF78B
:1038800055FC16001F00F6FFF6FFF6FFF6FF1F00BF
:10389000F6FFF6FFF6FFF6FFA10036008000F6FF08
:1038A000F6FFB200F6FF3600F6FFF6FF84002500B3
:1038B0001A684235111D196013682B700123A0E0AE
:1038C00018680968021D0D060BD506681A60002EDF
:1038D00003DA2D23039A764213705E4B0A27049372
:1038E00018E006681A604906F1D536B2EFE70868B5
:1038F000196840C9050602D4400600D5B6B2196061
:10390000544B0A2704936F2A00D1023F2300002260
:1039100043331A706368A360002B03DB0421226821
:103920008A432260002E02D1039D002B0CD0039D00
:1039300030003900FCF78AFC049B013D5B5C2B7076
:10394000330006009F42F3D9082F09D12368DB0713
:1039500006D5626823699A4202DC3023013D2B7050
:10396000039B5B1B2361079B210000930598069B2B
:1039700009AAFFF7F5FE013048D1012040420BB003
:10398000F0BD202209680A4322607822324904915E
:10399000210045310A701968226840C9100602D416
:1039A000500600D5B6B21960D30702D520231343C1
:1039B0002360002E01D01027A8E72022236893431C
:1039C0002360F8E71A680D68101D496918601368CC
:1039D0002E0601D5196002E06D06FBD51980002383
:1039E000039D2361BFE71A68111D19601568002146
:1039F0002800626800F058F8002801D0401B606081
:103A0000636823610023039A1370ACE72A002369DB
:103A100006990598079DA8470130AED023689B07FB
:103A200015D4099BE0689842A9DA1800A7E722009C
:103A3000012306990598079E1932B04701309CD0A2
:103A40000135E368099A9B1AAB42F0DCE9E70025EF
:103A5000F7E7C046353C0008463C000810B58842F0
:103A600006D800239A4208D0CC5CC4540133F9E74D
:103A70008B189842F5D2013A00D210BD8B5C83546A
:103A8000F9E70000002370B5064D040008002B6024
:103A9000FDF7FEF9431C03D12B68002B00D02360F7
:103AA00070BDC046B8030020C9B28218904201D14F
:103AB0000020704703788B42FBD00130F6E70023EB
:103AC00010B59A4200D110BDCC5CC4540133F8E764
:103AD000F7B506000C001500002905D11100FFF70D
:103AE00051FC04002000FEBD002A03D1FFF7DEFBDD
:103AF0000024F7E700F01BF80700854202D84308CE
:103B0000AB42EFD329003000FFF73CFC01900028C6
:103B1000EED02A00BD4200D93A0021000198FFF7FB
:103B2000CEFF21003000FFF7C1FB019CDAE70B1F3D
:103B30001B68181F002B01DA0B58C01870470000D3
:103B4000F8B5C046F8BC08BC9E467047F8B5C046FC
:083B5000F8BC08BC9E4670475A
:103B580076616C7665206F70656E0D0A004261743F
:103B68007465727920566F6C746167653A202564B4
:103B78000D0A0045466C6F6F64477561726428765C
:103B8800332E30290D0A00466C6F6F640D0A0076DB
:103B9800616C766520636C6F7365640D0A000000C4
:103BA800000000000000000000000000000000000D
:103BB80001000000020000000300000004000000F3
:103BC80000000000000000000000000000000000ED
:103BD80000000000000000000000000000000000DD
:103BE80001000000020000000300000004000000C3
:103BF800060000000700000008000000090000009F
:103C080004020800010002000400060008000A007F
:103C18000C0010002000400080000001232D302BF4
:103C28002000686C4C0065666745464700303132B5
:103C3800333435363738394142434445460030310C
:103C4800323334353637383961626364656600006B
:043C5800E900000877
:043C5C00C10000089B
:103C600001000000006CDC02010000000400000004
:103C7000140000200000000080020020E802002064
:103C800050030020000000000000000000000000C1
:103C90000000000000000000000000000000000024
:103CA0000000000000000000000000000000000014
:103CB0000000000000000000000000000000000004
:0400000508000EE100
:00000001FF
